{
  "contractName": "Escrow",
  "abi": [
    {
      "constant": true,
      "inputs": [
        {
          "name": "",
          "type": "uint256"
        }
      ],
      "name": "Jobs",
      "outputs": [
        {
          "name": "description",
          "type": "string"
        },
        {
          "name": "manager",
          "type": "address"
        },
        {
          "name": "salaryDeposited",
          "type": "uint256"
        },
        {
          "name": "worker",
          "type": "address"
        },
        {
          "name": "status",
          "type": "uint8"
        },
        {
          "name": "noOfTotalPayments",
          "type": "uint256"
        },
        {
          "name": "noOfPaymentsMade",
          "type": "uint256"
        },
        {
          "name": "paymentAvailableForWorker",
          "type": "uint256"
        },
        {
          "name": "totalPaidToWorker",
          "type": "uint256"
        },
        {
          "name": "evaluator",
          "type": "address"
        },
        {
          "name": "proofOfLastWorkVerified",
          "type": "bool"
        },
        {
          "name": "sponsoredTokens",
          "type": "uint256"
        },
        {
          "name": "sponsorsCount",
          "type": "uint256"
        }
      ],
      "payable": false,
      "stateMutability": "view",
      "type": "function"
    },
    {
      "constant": true,
      "inputs": [
        {
          "name": "",
          "type": "address"
        },
        {
          "name": "",
          "type": "uint256"
        }
      ],
      "name": "JobsByManager",
      "outputs": [
        {
          "name": "",
          "type": "uint256"
        }
      ],
      "payable": false,
      "stateMutability": "view",
      "type": "function"
    },
    {
      "constant": true,
      "inputs": [],
      "name": "jobCount",
      "outputs": [
        {
          "name": "",
          "type": "uint256"
        }
      ],
      "payable": false,
      "stateMutability": "view",
      "type": "function"
    },
    {
      "constant": true,
      "inputs": [],
      "name": "arbitrator",
      "outputs": [
        {
          "name": "",
          "type": "address"
        }
      ],
      "payable": false,
      "stateMutability": "view",
      "type": "function"
    },
    {
      "constant": true,
      "inputs": [],
      "name": "DAI",
      "outputs": [
        {
          "name": "",
          "type": "address"
        }
      ],
      "payable": false,
      "stateMutability": "view",
      "type": "function"
    },
    {
      "constant": true,
      "inputs": [
        {
          "name": "",
          "type": "address"
        },
        {
          "name": "",
          "type": "uint256"
        }
      ],
      "name": "JobsByWorker",
      "outputs": [
        {
          "name": "",
          "type": "uint256"
        }
      ],
      "payable": false,
      "stateMutability": "view",
      "type": "function"
    },
    {
      "inputs": [
        {
          "name": "_DAI",
          "type": "address"
        },
        {
          "name": "_arbitrator",
          "type": "address"
        }
      ],
      "payable": false,
      "stateMutability": "nonpayable",
      "type": "constructor"
    },
    {
      "anonymous": false,
      "inputs": [
        {
          "indexed": false,
          "name": "manager",
          "type": "address"
        },
        {
          "indexed": false,
          "name": "salary",
          "type": "uint256"
        },
        {
          "indexed": false,
          "name": "noOfTotalPayments",
          "type": "uint256"
        },
        {
          "indexed": false,
          "name": "JobID",
          "type": "uint256"
        },
        {
          "indexed": false,
          "name": "description",
          "type": "string"
        }
      ],
      "name": "JobCreated",
      "type": "event"
    },
    {
      "anonymous": false,
      "inputs": [
        {
          "indexed": false,
          "name": "worker",
          "type": "address"
        },
        {
          "indexed": false,
          "name": "JobID",
          "type": "uint256"
        }
      ],
      "name": "JobClaimed",
      "type": "event"
    },
    {
      "anonymous": false,
      "inputs": [
        {
          "indexed": false,
          "name": "JobID",
          "type": "uint256"
        },
        {
          "indexed": false,
          "name": "evaluator",
          "type": "address"
        }
      ],
      "name": "EvaluatorSet",
      "type": "event"
    },
    {
      "anonymous": false,
      "inputs": [
        {
          "indexed": false,
          "name": "JobID",
          "type": "uint256"
        }
      ],
      "name": "JobCancelled",
      "type": "event"
    },
    {
      "anonymous": false,
      "inputs": [
        {
          "indexed": false,
          "name": "worker",
          "type": "address"
        },
        {
          "indexed": false,
          "name": "amount",
          "type": "uint256"
        },
        {
          "indexed": false,
          "name": "JobID",
          "type": "uint256"
        }
      ],
      "name": "PaymentClaimed",
      "type": "event"
    },
    {
      "anonymous": false,
      "inputs": [
        {
          "indexed": false,
          "name": "manager",
          "type": "address"
        },
        {
          "indexed": false,
          "name": "JobID",
          "type": "uint256"
        },
        {
          "indexed": false,
          "name": "amount",
          "type": "uint256"
        }
      ],
      "name": "PaymentApproved",
      "type": "event"
    },
    {
      "anonymous": false,
      "inputs": [
        {
          "indexed": false,
          "name": "manager",
          "type": "address"
        },
        {
          "indexed": false,
          "name": "evaluator",
          "type": "address"
        },
        {
          "indexed": false,
          "name": "JobID",
          "type": "uint256"
        },
        {
          "indexed": false,
          "name": "payment",
          "type": "uint256"
        }
      ],
      "name": "EvaluatorPaid",
      "type": "event"
    },
    {
      "anonymous": false,
      "inputs": [
        {
          "indexed": false,
          "name": "JobID",
          "type": "uint256"
        },
        {
          "indexed": false,
          "name": "evaluator",
          "type": "address"
        },
        {
          "indexed": false,
          "name": "proofVerified",
          "type": "bool"
        }
      ],
      "name": "ProofOfWorkConfirmed",
      "type": "event"
    },
    {
      "anonymous": false,
      "inputs": [
        {
          "indexed": false,
          "name": "JobID",
          "type": "uint256"
        },
        {
          "indexed": false,
          "name": "worker",
          "type": "address"
        },
        {
          "indexed": false,
          "name": "proofProvided",
          "type": "bool"
        }
      ],
      "name": "ProofOfWorkProvided",
      "type": "event"
    },
    {
      "anonymous": false,
      "inputs": [
        {
          "indexed": false,
          "name": "from",
          "type": "address"
        },
        {
          "indexed": false,
          "name": "to",
          "type": "address"
        },
        {
          "indexed": false,
          "name": "amount",
          "type": "uint256"
        }
      ],
      "name": "TipMade",
      "type": "event"
    },
    {
      "anonymous": false,
      "inputs": [
        {
          "indexed": false,
          "name": "JobID",
          "type": "uint256"
        },
        {
          "indexed": false,
          "name": "amount",
          "type": "uint256"
        },
        {
          "indexed": false,
          "name": "sponsor",
          "type": "address"
        }
      ],
      "name": "DAISponsored",
      "type": "event"
    },
    {
      "anonymous": false,
      "inputs": [
        {
          "indexed": false,
          "name": "receiver",
          "type": "address"
        },
        {
          "indexed": false,
          "name": "amount",
          "type": "uint256"
        }
      ],
      "name": "DAIWithdrawn",
      "type": "event"
    },
    {
      "constant": false,
      "inputs": [
        {
          "name": "_description",
          "type": "string"
        },
        {
          "name": "_salary",
          "type": "uint256"
        },
        {
          "name": "_noOfTotalPayments",
          "type": "uint256"
        }
      ],
      "name": "createJob",
      "outputs": [],
      "payable": false,
      "stateMutability": "nonpayable",
      "type": "function"
    },
    {
      "constant": false,
      "inputs": [
        {
          "name": "_JobID",
          "type": "uint256"
        }
      ],
      "name": "claimJob",
      "outputs": [],
      "payable": false,
      "stateMutability": "nonpayable",
      "type": "function"
    },
    {
      "constant": false,
      "inputs": [
        {
          "name": "_JobID",
          "type": "uint256"
        }
      ],
      "name": "setEvaluator",
      "outputs": [],
      "payable": false,
      "stateMutability": "nonpayable",
      "type": "function"
    },
    {
      "constant": false,
      "inputs": [
        {
          "name": "_JobID",
          "type": "uint256"
        }
      ],
      "name": "cancelJob",
      "outputs": [],
      "payable": false,
      "stateMutability": "nonpayable",
      "type": "function"
    },
    {
      "constant": false,
      "inputs": [
        {
          "name": "_JobID",
          "type": "uint256"
        }
      ],
      "name": "claimPayment",
      "outputs": [],
      "payable": false,
      "stateMutability": "nonpayable",
      "type": "function"
    },
    {
      "constant": false,
      "inputs": [
        {
          "name": "_JobID",
          "type": "uint256"
        }
      ],
      "name": "approvePayment",
      "outputs": [],
      "payable": false,
      "stateMutability": "nonpayable",
      "type": "function"
    },
    {
      "constant": false,
      "inputs": [
        {
          "name": "_JobID",
          "type": "uint256"
        },
        {
          "name": "_payment",
          "type": "uint256"
        }
      ],
      "name": "payToEvaluator",
      "outputs": [],
      "payable": false,
      "stateMutability": "nonpayable",
      "type": "function"
    },
    {
      "constant": false,
      "inputs": [
        {
          "name": "_JobID",
          "type": "uint256"
        }
      ],
      "name": "confirmProofOfWork",
      "outputs": [],
      "payable": false,
      "stateMutability": "nonpayable",
      "type": "function"
    },
    {
      "constant": false,
      "inputs": [
        {
          "name": "_JobID",
          "type": "uint256"
        }
      ],
      "name": "provideProofOfWork",
      "outputs": [],
      "payable": false,
      "stateMutability": "nonpayable",
      "type": "function"
    },
    {
      "constant": false,
      "inputs": [
        {
          "name": "_to",
          "type": "address"
        },
        {
          "name": "_amount",
          "type": "uint256"
        }
      ],
      "name": "tip",
      "outputs": [],
      "payable": false,
      "stateMutability": "nonpayable",
      "type": "function"
    },
    {
      "constant": false,
      "inputs": [
        {
          "name": "_JobID",
          "type": "uint256"
        },
        {
          "name": "_amount",
          "type": "uint256"
        }
      ],
      "name": "sponsorDAI",
      "outputs": [],
      "payable": false,
      "stateMutability": "nonpayable",
      "type": "function"
    },
    {
      "constant": false,
      "inputs": [
        {
          "name": "_receiver",
          "type": "address"
        },
        {
          "name": "_amount",
          "type": "uint256"
        }
      ],
      "name": "withdrawDAI",
      "outputs": [],
      "payable": false,
      "stateMutability": "nonpayable",
      "type": "function"
    },
    {
      "constant": true,
      "inputs": [
        {
          "name": "_JobID",
          "type": "uint256"
        },
        {
          "name": "_sponsor",
          "type": "address"
        }
      ],
      "name": "get_Sponsored_Amount_in_Job_By_Address",
      "outputs": [
        {
          "name": "",
          "type": "uint256"
        }
      ],
      "payable": false,
      "stateMutability": "view",
      "type": "function"
    },
    {
      "constant": true,
      "inputs": [
        {
          "name": "_JobID",
          "type": "uint256"
        }
      ],
      "name": "get_Sponsors_list_by_Job",
      "outputs": [
        {
          "name": "list",
          "type": "address[]"
        }
      ],
      "payable": false,
      "stateMutability": "view",
      "type": "function"
    },
    {
      "constant": true,
      "inputs": [
        {
          "name": "_JobID",
          "type": "uint256"
        }
      ],
      "name": "getJob",
      "outputs": [
        {
          "name": "_description",
          "type": "string"
        },
        {
          "name": "_manager",
          "type": "address"
        },
        {
          "name": "_salaryDeposited",
          "type": "uint256"
        },
        {
          "name": "_worker",
          "type": "address"
        },
        {
          "name": "_status",
          "type": "uint256"
        },
        {
          "name": "_noOfTotalPayments",
          "type": "uint256"
        },
        {
          "name": "_noOfPaymentsMade",
          "type": "uint256"
        },
        {
          "name": "_paymentAvailableForWorker",
          "type": "uint256"
        },
        {
          "name": "_totalPaidToWorker",
          "type": "uint256"
        },
        {
          "name": "_evaluator",
          "type": "address"
        },
        {
          "name": "_proofOfLastWorkVerified",
          "type": "bool"
        },
        {
          "name": "_sponsoredTokens",
          "type": "uint256"
        },
        {
          "name": "_sponsorsCount",
          "type": "uint256"
        }
      ],
      "payable": false,
      "stateMutability": "view",
      "type": "function"
    }
  ],
  "bytecode": "0x6080604052600060045534801561001557600080fd5b50604051604080613625833981018060405281019080805190602001909291908051906020019092919050505081600360006101000a81548173ffffffffffffffffffffffffffffffffffffffff021916908373ffffffffffffffffffffffffffffffffffffffff16021790555080600560006101000a81548173ffffffffffffffffffffffffffffffffffffffff021916908373ffffffffffffffffffffffffffffffffffffffff1602179055505050613550806100d56000396000f30060806040526004361061011d576000357c0100000000000000000000000000000000000000000000000000000000900463ffffffff168063045c123a146101225780631ce10a9d146101595780631dffa3dc146101ba5780632cc772f0146101e7578063350dbcc5146103775780633db8352d146103f95780633efdf840146104265780634c5d8a0f1461048757806355c79f49146104b25780636cc6cde1146104e957806379c62711146105405780638b6fc452146105bd578063bf22c4571461060a578063c63fdcc71461078c578063c7d586c9146107b9578063de14c818146107e6578063e0bab4c414610813578063e3e4b9fb1461086a578063eabdd57214610897578063ee99881f146108e4578063fff9d5b914610945575b600080fd5b34801561012e57600080fd5b506101576004803603810190808035906020019092919080359060200190929190505050610972565b005b34801561016557600080fd5b506101a460048036038101908080359060200190929190803573ffffffffffffffffffffffffffffffffffffffff169060200190929190505050610de3565b6040518082815260200191505060405180910390f35b3480156101c657600080fd5b506101e560048036038101908080359060200190929190505050610e86565b005b3480156101f357600080fd5b506102126004803603810190808035906020019092919050505061117b565b60405180806020018e73ffffffffffffffffffffffffffffffffffffffff1673ffffffffffffffffffffffffffffffffffffffff1681526020018d81526020018c73ffffffffffffffffffffffffffffffffffffffff1673ffffffffffffffffffffffffffffffffffffffff1681526020018b600381111561029057fe5b60ff1681526020018a81526020018981526020018881526020018781526020018673ffffffffffffffffffffffffffffffffffffffff1673ffffffffffffffffffffffffffffffffffffffff1681526020018515151515815260200184815260200183815260200182810382528f818151815260200191508051906020019080838360005b83811015610330578082015181840152602081019050610315565b50505050905090810190601f16801561035d5780820380516001836020036101000a031916815260200191505b509e50505050505050505050505050505060405180910390f35b34801561038357600080fd5b506103a260048036038101908080359060200190929190505050611302565b6040518080602001828103825283818151815260200191508051906020019060200280838360005b838110156103e55780820151818401526020810190506103ca565b505050509050019250505060405180910390f35b34801561040557600080fd5b50610424600480360381019080803590602001909291905050506113fb565b005b34801561043257600080fd5b50610471600480360381019080803573ffffffffffffffffffffffffffffffffffffffff1690602001909291908035906020019092919050505061159b565b6040518082815260200191505060405180910390f35b34801561049357600080fd5b5061049c6115cb565b6040518082815260200191505060405180910390f35b3480156104be57600080fd5b506104e760048036038101908080359060200190929190803590602001909291905050506115d1565b005b3480156104f557600080fd5b506104fe6119fb565b604051808273ffffffffffffffffffffffffffffffffffffffff1673ffffffffffffffffffffffffffffffffffffffff16815260200191505060405180910390f35b34801561054c57600080fd5b506105bb600480360381019080803590602001908201803590602001908080601f01602080910402602001604051908101604052809392919081815260200183838082843782019150505050505091929192908035906020019092919080359060200190929190505050611a21565b005b3480156105c957600080fd5b50610608600480360381019080803573ffffffffffffffffffffffffffffffffffffffff169060200190929190803590602001909291905050506120f2565b005b34801561061657600080fd5b5061063560048036038101908080359060200190929190505050612439565b60405180806020018e73ffffffffffffffffffffffffffffffffffffffff1673ffffffffffffffffffffffffffffffffffffffff1681526020018d81526020018c73ffffffffffffffffffffffffffffffffffffffff1673ffffffffffffffffffffffffffffffffffffffff1681526020018b81526020018a81526020018981526020018881526020018781526020018673ffffffffffffffffffffffffffffffffffffffff1673ffffffffffffffffffffffffffffffffffffffff1681526020018515151515815260200184815260200183815260200182810382528f818151815260200191508051906020019080838360005b8381101561074557808201518184015260208101905061072a565b50505050905090810190601f1680156107725780820380516001836020036101000a031916815260200191505b509e50505050505050505050505050505060405180910390f35b34801561079857600080fd5b506107b760048036038101908080359060200190929190505050612607565b005b3480156107c557600080fd5b506107e460048036038101908080359060200190929190505050612830565b005b3480156107f257600080fd5b5061081160048036038101908080359060200190929190505050612957565b005b34801561081f57600080fd5b50610828612b77565b604051808273ffffffffffffffffffffffffffffffffffffffff1673ffffffffffffffffffffffffffffffffffffffff16815260200191505060405180910390f35b34801561087657600080fd5b5061089560048036038101908080359060200190929190505050612b9d565b005b3480156108a357600080fd5b506108e2600480360381019080803573ffffffffffffffffffffffffffffffffffffffff16906020019092919080359060200190929190505050612e02565b005b3480156108f057600080fd5b5061092f600480360381019080803573ffffffffffffffffffffffffffffffffffffffff16906020019092919080359060200190929190505050613109565b6040518082815260200191505060405180910390f35b34801561095157600080fd5b5061097060048036038101908080359060200190929190505050613139565b005b600080831015151561098357600080fd5b60008211151561099257600080fd5b6000838154811015156109a157fe5b90600052602060002090600d02019050600081600a0160003373ffffffffffffffffffffffffffffffffffffffff1673ffffffffffffffffffffffffffffffffffffffff168152602001908152602001600020541415610a645780600b013390806001815401808255809150509060018203906000526020600020016000909192909190916101000a81548173ffffffffffffffffffffffffffffffffffffffff021916908373ffffffffffffffffffffffffffffffffffffffff160217905550505b8181600a0160003373ffffffffffffffffffffffffffffffffffffffff1673ffffffffffffffffffffffffffffffffffffffff168152602001908152602001600020540181600a0160003373ffffffffffffffffffffffffffffffffffffffff1673ffffffffffffffffffffffffffffffffffffffff168152602001908152602001600020819055508181600901540181600901819055507f1c457be2c879623ab0a03d6ac7897b46f5299948b3624f67925a5077c3cf56f1838333604051808481526020018381526020018273ffffffffffffffffffffffffffffffffffffffff1673ffffffffffffffffffffffffffffffffffffffff168152602001935050505060405180910390a181600360009054906101000a900473ffffffffffffffffffffffffffffffffffffffff1673ffffffffffffffffffffffffffffffffffffffff1663dd62ed3e33306040518363ffffffff167c0100000000000000000000000000000000000000000000000000000000028152600401808373ffffffffffffffffffffffffffffffffffffffff1673ffffffffffffffffffffffffffffffffffffffff1681526020018273ffffffffffffffffffffffffffffffffffffffff1673ffffffffffffffffffffffffffffffffffffffff16815260200192505050602060405180830381600087803b158015610c6157600080fd5b505af1158015610c75573d6000803e3d6000fd5b505050506040513d6020811015610c8b57600080fd5b810190808051906020019092919050505010151515610ca957600080fd5b600360009054906101000a900473ffffffffffffffffffffffffffffffffffffffff1673ffffffffffffffffffffffffffffffffffffffff166323b872dd3330856040518463ffffffff167c0100000000000000000000000000000000000000000000000000000000028152600401808473ffffffffffffffffffffffffffffffffffffffff1673ffffffffffffffffffffffffffffffffffffffff1681526020018373ffffffffffffffffffffffffffffffffffffffff1673ffffffffffffffffffffffffffffffffffffffff1681526020018281526020019350505050602060405180830381600087803b158015610da257600080fd5b505af1158015610db6573d6000803e3d6000fd5b505050506040513d6020811015610dcc57600080fd5b810190808051906020019092919050505050505050565b60008060008410151515610df657600080fd5b60008373ffffffffffffffffffffffffffffffffffffffff1614151515610e1c57600080fd5b600084815481101515610e2b57fe5b90600052602060002090600d0201905080600a0160008473ffffffffffffffffffffffffffffffffffffffff1673ffffffffffffffffffffffffffffffffffffffff1681526020019081526020016000205491505092915050565b60008060008310151515610e9957600080fd5b600083815481101515610ea857fe5b90600052602060002090600d02019150600560009054906101000a900473ffffffffffffffffffffffffffffffffffffffff1673ffffffffffffffffffffffffffffffffffffffff163373ffffffffffffffffffffffffffffffffffffffff16141515610fed573373ffffffffffffffffffffffffffffffffffffffff168260010160009054906101000a900473ffffffffffffffffffffffffffffffffffffffff1673ffffffffffffffffffffffffffffffffffffffff16141515610f6d57600080fd5b60008260030160009054906101000a900473ffffffffffffffffffffffffffffffffffffffff1673ffffffffffffffffffffffffffffffffffffffff16141515610fb657600080fd5b60006003811115610fc357fe5b8260030160149054906101000a900460ff166003811115610fe057fe5b141515610fec57600080fd5b5b60038260030160146101000a81548160ff0219169083600381111561100e57fe5b0217905550816002015490507f58243f872c550ad02802199ade99eb4250f6bb19e9abbf2d3de7b969c0eb5e4f836040518082815260200191505060405180910390a1600360009054906101000a900473ffffffffffffffffffffffffffffffffffffffff1673ffffffffffffffffffffffffffffffffffffffff1663a9059cbb8360010160009054906101000a900473ffffffffffffffffffffffffffffffffffffffff16836040518363ffffffff167c0100000000000000000000000000000000000000000000000000000000028152600401808373ffffffffffffffffffffffffffffffffffffffff1673ffffffffffffffffffffffffffffffffffffffff16815260200182815260200192505050602060405180830381600087803b15801561113a57600080fd5b505af115801561114e573d6000803e3d6000fd5b505050506040513d602081101561116457600080fd5b810190808051906020019092919050505050505050565b60008181548110151561118a57fe5b90600052602060002090600d0201600091509050806000018054600181600116156101000203166002900480601f0160208091040260200160405190810160405280929190818152602001828054600181600116156101000203166002900480156112365780601f1061120b57610100808354040283529160200191611236565b820191906000526020600020905b81548152906001019060200180831161121957829003601f168201915b5050505050908060010160009054906101000a900473ffffffffffffffffffffffffffffffffffffffff16908060020154908060030160009054906101000a900473ffffffffffffffffffffffffffffffffffffffff16908060030160149054906101000a900460ff16908060040154908060050154908060060154908060070154908060080160009054906101000a900473ffffffffffffffffffffffffffffffffffffffff16908060080160149054906101000a900460ff169080600901549080600c015490508d565b6060600080831015151561131557600080fd5b60008381548110151561132457fe5b90600052602060002090600d0201905080600c01546040519080825280602002602001820160405280156113675781602001602082028038833980820191505090505b50915080600b018054806020026020016040519081016040528092919081815260200182805480156113ee57602002820191906000526020600020905b8160009054906101000a900473ffffffffffffffffffffffffffffffffffffffff1673ffffffffffffffffffffffffffffffffffffffff16815260200190600101908083116113a4575b5050505050915050919050565b600080821015151561140c57600080fd5b60008281548110151561141b57fe5b90600052602060002090600d020190508060010160009054906101000a900473ffffffffffffffffffffffffffffffffffffffff1673ffffffffffffffffffffffffffffffffffffffff163373ffffffffffffffffffffffffffffffffffffffff161415151561148a57600080fd5b8060030160009054906101000a900473ffffffffffffffffffffffffffffffffffffffff1673ffffffffffffffffffffffffffffffffffffffff163373ffffffffffffffffffffffffffffffffffffffff16141515156114e957600080fd5b338160080160006101000a81548173ffffffffffffffffffffffffffffffffffffffff021916908373ffffffffffffffffffffffffffffffffffffffff1602179055507f86a26a3cfa472a1cc2574ccd8f27a18b3235f3c56d77cd181abf6051b89fbe0b8233604051808381526020018273ffffffffffffffffffffffffffffffffffffffff1673ffffffffffffffffffffffffffffffffffffffff1681526020019250505060405180910390a15050565b6001602052816000526040600020818154811015156115b657fe5b90600052602060002001600091509150505481565b60045481565b600080600084101515156115e457600080fd5b6000831115156115f357600080fd5b60008481548110151561160257fe5b90600052602060002090600d020191508160010160009054906101000a900473ffffffffffffffffffffffffffffffffffffffff1673ffffffffffffffffffffffffffffffffffffffff163373ffffffffffffffffffffffffffffffffffffffff1614151561167057600080fd5b8160080160009054906101000a900473ffffffffffffffffffffffffffffffffffffffff16905082600360009054906101000a900473ffffffffffffffffffffffffffffffffffffffff1673ffffffffffffffffffffffffffffffffffffffff1663dd62ed3e8460010160009054906101000a900473ffffffffffffffffffffffffffffffffffffffff16306040518363ffffffff167c0100000000000000000000000000000000000000000000000000000000028152600401808373ffffffffffffffffffffffffffffffffffffffff1673ffffffffffffffffffffffffffffffffffffffff1681526020018273ffffffffffffffffffffffffffffffffffffffff1673ffffffffffffffffffffffffffffffffffffffff16815260200192505050602060405180830381600087803b1580156117ad57600080fd5b505af11580156117c1573d6000803e3d6000fd5b505050506040513d60208110156117d757600080fd5b8101908080519060200190929190505050101515156117f557600080fd5b7f252833651492b0b7c47daf95a55c2387daecb53e25ab98d5925ec199eab64de133828686604051808573ffffffffffffffffffffffffffffffffffffffff1673ffffffffffffffffffffffffffffffffffffffff1681526020018473ffffffffffffffffffffffffffffffffffffffff1673ffffffffffffffffffffffffffffffffffffffff16815260200183815260200182815260200194505050505060405180910390a1600360009054906101000a900473ffffffffffffffffffffffffffffffffffffffff1673ffffffffffffffffffffffffffffffffffffffff166323b872dd8360010160009054906101000a900473ffffffffffffffffffffffffffffffffffffffff1683866040518463ffffffff167c0100000000000000000000000000000000000000000000000000000000028152600401808473ffffffffffffffffffffffffffffffffffffffff1673ffffffffffffffffffffffffffffffffffffffff1681526020018373ffffffffffffffffffffffffffffffffffffffff1673ffffffffffffffffffffffffffffffffffffffff1681526020018281526020019350505050602060405180830381600087803b1580156119b957600080fd5b505af11580156119cd573d6000803e3d6000fd5b505050506040513d60208110156119e357600080fd5b81019080805190602001909291905050505050505050565b600560009054906101000a900473ffffffffffffffffffffffffffffffffffffffff1681565b60606000611a2d6132f3565b600085111515611a3c57600080fd5b600084111515611a4b57600080fd5b611a84611a756032611a6760018961328490919063ffffffff16565b6132bf90919063ffffffff16565b866132da90919063ffffffff16565b91506101c0604051908101604052808781526020013373ffffffffffffffffffffffffffffffffffffffff168152602001838152602001600073ffffffffffffffffffffffffffffffffffffffff16815260200160006003811115611ae557fe5b8152602001858152602001600081526020016000815260200160008152602001600073ffffffffffffffffffffffffffffffffffffffff16815260200160001515815260200160008152602001848152602001600081525090506000819080600181540180825580915050906001820390600052602060002090600d0201600090919290919091506000820151816000019080519060200190611b899291906133b2565b5060208201518160010160006101000a81548173ffffffffffffffffffffffffffffffffffffffff021916908373ffffffffffffffffffffffffffffffffffffffff1602179055506040820151816002015560608201518160030160006101000a81548173ffffffffffffffffffffffffffffffffffffffff021916908373ffffffffffffffffffffffffffffffffffffffff16021790555060808201518160030160146101000a81548160ff02191690836003811115611c4657fe5b021790555060a0820151816004015560c0820151816005015560e0820151816006015561010082015181600701556101208201518160080160006101000a81548173ffffffffffffffffffffffffffffffffffffffff021916908373ffffffffffffffffffffffffffffffffffffffff1602179055506101408201518160080160146101000a81548160ff021916908315150217905550610160820151816009015561018082015181600b019080519060200190611d05929190613432565b506101a082015181600c0155505050600160003373ffffffffffffffffffffffffffffffffffffffff1673ffffffffffffffffffffffffffffffffffffffff168152602001908152602001600020600454908060018154018082558091505090600182039060005260206000200160009091929091909150555084600360009054906101000a900473ffffffffffffffffffffffffffffffffffffffff1673ffffffffffffffffffffffffffffffffffffffff1663dd62ed3e33306040518363ffffffff167c0100000000000000000000000000000000000000000000000000000000028152600401808373ffffffffffffffffffffffffffffffffffffffff1673ffffffffffffffffffffffffffffffffffffffff1681526020018273ffffffffffffffffffffffffffffffffffffffff1673ffffffffffffffffffffffffffffffffffffffff16815260200192505050602060405180830381600087803b158015611e7157600080fd5b505af1158015611e85573d6000803e3d6000fd5b505050506040513d6020811015611e9b57600080fd5b810190808051906020019092919050505010151515611eb957600080fd5b7f5115e997a3da4520486657eb4f915f5b9e816d0aad787b228046cc84191e38653383866004548a604051808673ffffffffffffffffffffffffffffffffffffffff1673ffffffffffffffffffffffffffffffffffffffff16815260200185815260200184815260200183815260200180602001828103825283818151815260200191508051906020019080838360005b83811015611f65578082015181840152602081019050611f4a565b50505050905090810190601f168015611f925780820380516001836020036101000a031916815260200191505b50965050505050505060405180910390a1600460008154809291906001019190505550600360009054906101000a900473ffffffffffffffffffffffffffffffffffffffff1673ffffffffffffffffffffffffffffffffffffffff166323b872dd3330886040518463ffffffff167c0100000000000000000000000000000000000000000000000000000000028152600401808473ffffffffffffffffffffffffffffffffffffffff1673ffffffffffffffffffffffffffffffffffffffff1681526020018373ffffffffffffffffffffffffffffffffffffffff1673ffffffffffffffffffffffffffffffffffffffff1681526020018281526020019350505050602060405180830381600087803b1580156120ae57600080fd5b505af11580156120c2573d6000803e3d6000fd5b505050506040513d60208110156120d857600080fd5b810190808051906020019092919050505050505050505050565b60008273ffffffffffffffffffffffffffffffffffffffff161415151561211857600080fd5b60008111151561212757600080fd5b80600360009054906101000a900473ffffffffffffffffffffffffffffffffffffffff1673ffffffffffffffffffffffffffffffffffffffff1663dd62ed3e33306040518363ffffffff167c0100000000000000000000000000000000000000000000000000000000028152600401808373ffffffffffffffffffffffffffffffffffffffff1673ffffffffffffffffffffffffffffffffffffffff1681526020018273ffffffffffffffffffffffffffffffffffffffff1673ffffffffffffffffffffffffffffffffffffffff16815260200192505050602060405180830381600087803b15801561221957600080fd5b505af115801561222d573d6000803e3d6000fd5b505050506040513d602081101561224357600080fd5b81019080805190602001909291905050501015151561226157600080fd5b7f4a77089dfd9dbec216f58a2b7573fedbe288820f466c1e53225e332b6feede1d338383604051808473ffffffffffffffffffffffffffffffffffffffff1673ffffffffffffffffffffffffffffffffffffffff1681526020018373ffffffffffffffffffffffffffffffffffffffff1673ffffffffffffffffffffffffffffffffffffffff168152602001828152602001935050505060405180910390a1600360009054906101000a900473ffffffffffffffffffffffffffffffffffffffff1673ffffffffffffffffffffffffffffffffffffffff166323b872dd3384846040518463ffffffff167c0100000000000000000000000000000000000000000000000000000000028152600401808473ffffffffffffffffffffffffffffffffffffffff1673ffffffffffffffffffffffffffffffffffffffff1681526020018373ffffffffffffffffffffffffffffffffffffffff1673ffffffffffffffffffffffffffffffffffffffff1681526020018281526020019350505050602060405180830381600087803b1580156123f957600080fd5b505af115801561240d573d6000803e3d6000fd5b505050506040513d602081101561242357600080fd5b8101908080519060200190929190505050505050565b60606000806000806000806000806000806000806000808f1015151561245e57600080fd5b60008f81548110151561246d57fe5b90600052602060002090600d02019050806000018054600181600116156101000203166002900480601f0160208091040260200160405190810160405280929190818152602001828054600181600116156101000203166002900480156125155780601f106124ea57610100808354040283529160200191612515565b820191906000526020600020905b8154815290600101906020018083116124f857829003601f168201915b50505050509d508060010160009054906101000a900473ffffffffffffffffffffffffffffffffffffffff169c5080600201549b508060030160009054906101000a900473ffffffffffffffffffffffffffffffffffffffff169a508060030160149054906101000a900460ff16600381111561258e57fe5b9950806004015498508060050154975080600601549650806007015495508060080160009054906101000a900473ffffffffffffffffffffffffffffffffffffffff1694508060080160149054906101000a900460ff1693508060090154925080600c015491505091939597999b9d90929496989a9c50565b6000806000831015151561261a57600080fd5b60008381548110151561262957fe5b90600052602060002090600d020191503373ffffffffffffffffffffffffffffffffffffffff168260030160009054906101000a900473ffffffffffffffffffffffffffffffffffffffff1673ffffffffffffffffffffffffffffffffffffffff1614151561269757600080fd5b816006015490506000811115156126ad57600080fd5b600082600601819055507fe382930a1e1c9d4208204fa93e9089518e327044527d4428dbe71c8f812d0dbe338285604051808473ffffffffffffffffffffffffffffffffffffffff1673ffffffffffffffffffffffffffffffffffffffff168152602001838152602001828152602001935050505060405180910390a1600360009054906101000a900473ffffffffffffffffffffffffffffffffffffffff1673ffffffffffffffffffffffffffffffffffffffff1663a9059cbb33836040518363ffffffff167c0100000000000000000000000000000000000000000000000000000000028152600401808373ffffffffffffffffffffffffffffffffffffffff1673ffffffffffffffffffffffffffffffffffffffff16815260200182815260200192505050602060405180830381600087803b1580156127ef57600080fd5b505af1158015612803573d6000803e3d6000fd5b505050506040513d602081101561281957600080fd5b810190808051906020019092919050505050505050565b600080821015151561284157600080fd5b60008281548110151561285057fe5b90600052602060002090600d020190508060030160009054906101000a900473ffffffffffffffffffffffffffffffffffffffff1673ffffffffffffffffffffffffffffffffffffffff163373ffffffffffffffffffffffffffffffffffffffff161415156128be57600080fd5b60008160080160146101000a81548160ff0219169083151502179055507fb26435406dda1fc61b5703a66daa2107824bd43a82e87aa214a1da46c18234c782336001604051808481526020018373ffffffffffffffffffffffffffffffffffffffff1673ffffffffffffffffffffffffffffffffffffffff16815260200182151515158152602001935050505060405180910390a15050565b6000806000831015151561296a57600080fd5b60008381548110151561297957fe5b90600052602060002090600d02019150600560009054906101000a900473ffffffffffffffffffffffffffffffffffffffff1673ffffffffffffffffffffffffffffffffffffffff163373ffffffffffffffffffffffffffffffffffffffff16141515612a63573373ffffffffffffffffffffffffffffffffffffffff168260010160009054906101000a900473ffffffffffffffffffffffffffffffffffffffff1673ffffffffffffffffffffffffffffffffffffffff16141515612a3e57600080fd5b600115158260080160149054906101000a900460ff161515141515612a6257600080fd5b5b81600501548260040154111515612a7957600080fd5b612a94826004015483600201546132bf90919063ffffffff16565b90508082600601540182600601819055508082600701540182600701819055508160050160008154809291906001019190505550816005015482600401541415612aff5760028260030160146101000a81548160ff02191690836003811115612af957fe5b02179055505b7f7368f4cd15f07fb68c74d99d33bd632a5964e34b2c40ed0a95f14ce44826b642338483604051808473ffffffffffffffffffffffffffffffffffffffff1673ffffffffffffffffffffffffffffffffffffffff168152602001838152602001828152602001935050505060405180910390a1505050565b600360009054906101000a900473ffffffffffffffffffffffffffffffffffffffff1681565b6000808210151515612bae57600080fd5b600082815481101515612bbd57fe5b90600052602060002090600d020190508060010160009054906101000a900473ffffffffffffffffffffffffffffffffffffffff1673ffffffffffffffffffffffffffffffffffffffff163373ffffffffffffffffffffffffffffffffffffffff1614151515612c2c57600080fd5b8060080160009054906101000a900473ffffffffffffffffffffffffffffffffffffffff1673ffffffffffffffffffffffffffffffffffffffff163373ffffffffffffffffffffffffffffffffffffffff1614151515612c8b57600080fd5b60006003811115612c9857fe5b8160030160149054906101000a900460ff166003811115612cb557fe5b141515612cc157600080fd5b338160030160006101000a81548173ffffffffffffffffffffffffffffffffffffffff021916908373ffffffffffffffffffffffffffffffffffffffff16021790555060018160030160146101000a81548160ff02191690836003811115612d2557fe5b0217905550600260003373ffffffffffffffffffffffffffffffffffffffff1673ffffffffffffffffffffffffffffffffffffffff1681526020019081526020016000208290806001815401808255809150509060018203906000526020600020016000909192909190915055507fc72e2794bcdce0065fa06608f52c431785279713b06caa16a06519e54c29a4cc3383604051808373ffffffffffffffffffffffffffffffffffffffff1673ffffffffffffffffffffffffffffffffffffffff1681526020018281526020019250505060405180910390a15050565b600560009054906101000a900473ffffffffffffffffffffffffffffffffffffffff1673ffffffffffffffffffffffffffffffffffffffff163373ffffffffffffffffffffffffffffffffffffffff16141515612e5e57600080fd5b60008273ffffffffffffffffffffffffffffffffffffffff1614151515612e8457600080fd5b600081111515612e9357600080fd5b80600360009054906101000a900473ffffffffffffffffffffffffffffffffffffffff1673ffffffffffffffffffffffffffffffffffffffff166370a08231306040518263ffffffff167c0100000000000000000000000000000000000000000000000000000000028152600401808273ffffffffffffffffffffffffffffffffffffffff1673ffffffffffffffffffffffffffffffffffffffff168152602001915050602060405180830381600087803b158015612f5157600080fd5b505af1158015612f65573d6000803e3d6000fd5b505050506040513d6020811015612f7b57600080fd5b810190808051906020019092919050505010151515612f9957600080fd5b600360009054906101000a900473ffffffffffffffffffffffffffffffffffffffff1673ffffffffffffffffffffffffffffffffffffffff1663a9059cbb83836040518363ffffffff167c0100000000000000000000000000000000000000000000000000000000028152600401808373ffffffffffffffffffffffffffffffffffffffff1673ffffffffffffffffffffffffffffffffffffffff16815260200182815260200192505050602060405180830381600087803b15801561305e57600080fd5b505af1158015613072573d6000803e3d6000fd5b505050506040513d602081101561308857600080fd5b8101908080519060200190929190505050507f9be23a2f8c21c5935ad4208c3739632108a4cef5c82e4d909f94c0f377ed0e338282604051808373ffffffffffffffffffffffffffffffffffffffff1673ffffffffffffffffffffffffffffffffffffffff1681526020018281526020019250505060405180910390a15050565b60026020528160005260406000208181548110151561312457fe5b90600052602060002001600091509150505481565b600080821015151561314a57600080fd5b60008281548110151561315957fe5b90600052602060002090600d020190508060080160009054906101000a900473ffffffffffffffffffffffffffffffffffffffff1673ffffffffffffffffffffffffffffffffffffffff163373ffffffffffffffffffffffffffffffffffffffff161415156131c757600080fd5b60018160080160146101000a81548160ff0219169083151502179055507f891acbd824988c7f263b375de6b684e2a4004dccb766869697d6059c80e95bb8828260080160009054906101000a900473ffffffffffffffffffffffffffffffffffffffff166001604051808481526020018373ffffffffffffffffffffffffffffffffffffffff1673ffffffffffffffffffffffffffffffffffffffff16815260200182151515158152602001935050505060405180910390a15050565b600080600084141561329957600091506132b8565b82840290508284828115156132aa57fe5b041415156132b457fe5b8091505b5092915050565b60008082848115156132cd57fe5b0490508091505092915050565b60008282111515156132e857fe5b818303905092915050565b6101c06040519081016040528060608152602001600073ffffffffffffffffffffffffffffffffffffffff16815260200160008152602001600073ffffffffffffffffffffffffffffffffffffffff1681526020016000600381111561335557fe5b815260200160008152602001600081526020016000815260200160008152602001600073ffffffffffffffffffffffffffffffffffffffff1681526020016000151581526020016000815260200160608152602001600081525090565b828054600181600116156101000203166002900490600052602060002090601f016020900481019282601f106133f357805160ff1916838001178555613421565b82800160010185558215613421579182015b82811115613420578251825591602001919060010190613405565b5b50905061342e91906134bc565b5090565b8280548282559060005260206000209081019282156134ab579160200282015b828111156134aa5782518260006101000a81548173ffffffffffffffffffffffffffffffffffffffff021916908373ffffffffffffffffffffffffffffffffffffffff16021790555091602001919060010190613452565b5b5090506134b891906134e1565b5090565b6134de91905b808211156134da5760008160009055506001016134c2565b5090565b90565b61352191905b8082111561351d57600081816101000a81549073ffffffffffffffffffffffffffffffffffffffff0219169055506001016134e7565b5090565b905600a165627a7a723058208f1990a7e5d35c6127e1d06afa69ab6156b102c3de27af18120a49c74512a6150029",
  "source": "pragma solidity ^0.4.23;\n\n\nlibrary SafeMath {\n\n  /**\n  * @dev Multiplies two numbers, throws on overflow.\n  */\n    function mul(uint256 a, uint256 b) internal pure returns (uint256) {\n        if (a == 0) {\n            return 0;\n        }\n        uint256 c = a * b;\n        assert(c / a == b);\n        return c;\n    }\n\n  /**\n  * @dev Integer division of two numbers, truncating the quotient.\n  */\n    function div(uint256 a, uint256 b) internal pure returns (uint256) {\n        // assert(b > 0); // Solidity automatically throws when dividing by 0\n        uint256 c = a / b;\n        // assert(a == b * c + a % b); // There is no case in which this doesn't hold\n        return c;\n    }\n\n  /**\n  * @dev Substracts two numbers, throws on overflow (i.e. if subtrahend is greater than minuend).\n  */\n    function sub(uint256 a, uint256 b) internal pure returns (uint256) {\n        assert(b <= a);\n        return a - b;\n    }\n\n    /**\n    * @dev Adds two numbers, throws on overflow.\n    */\n    function add(uint256 a, uint256 b) internal pure returns (uint256) {\n        uint256 c = a + b;\n        assert(c >= a);\n        return c;\n    }\n}\n\n\ncontract ERC20Basic {\n    function totalSupply() public view returns (uint256);\n    function balanceOf(address who) public view returns (uint256);\n    function transfer(address to, uint256 value) public returns (bool);\n    event Transfer(address indexed from, address indexed to, uint256 value);\n}\n\n\ncontract ERC20 is ERC20Basic {\n    function allowance(address owner, address spender) public view returns (uint256);\n    function transferFrom(address from, address to, uint256 value) public returns (bool);\n    function approve(address spender, uint256 value) public returns (bool);\n    event Approval(address indexed owner, address indexed spender, uint256 value);\n}\n\n\n/// @title Escrow contract\n/// @author Farah\n/// @notice It's a contract for escrow based creating, claiming and rewarding jobs.\n\ncontract Escrow{\n\n    using SafeMath for uint;\n    enum JobStatus { Open, inProgress, Completed, Cancelled }\n\n    struct Job{\n        string description;               // description of job\n        // uint JobID;                       // Id of the job\n        address manager;                  // address of manager\n        uint salaryDeposited;             // salary deposited by manager\n        address worker;                   // address of worker\n        JobStatus status;                 // current status of the job\n        uint noOfTotalPayments;           // total number of Payments set by the manager\n        uint noOfPaymentsMade;            // number of payments that have already been made\n        uint paymentAvailableForWorker;   // amount of DAI tokens available for the worker as claimable\n        uint totalPaidToWorker;           // total amount of DAI tokens paid to worker so far for this job\n        address evaluator;                // address of evaluator for this job\n        bool proofOfLastWorkVerified;     // status of the proof of work for the last milestone\n        uint sponsoredTokens;             // amount of DAI tokens sponsored to the job\n        mapping(address => uint) sponsors; // mapping of all the sponsors with their contributions for a job\n        address[] sponsorList;             // List of addresses for all sponsors for iterations\n        uint sponsorsCount;                // total number of contributors for this job\n    }\n\n    Job[] public Jobs;                    // List of all the jobs\n\n\n    mapping(address => uint[]) public JobsByManager;        // all the jobs held by a manager\n    mapping(address => uint[]) public JobsByWorker;         // all the jobs held by a worker\n\n\n    ERC20 public DAI;\n\n    uint public jobCount = 0;     // current count of the total Jobs\n\n    address public arbitrator;     // address of arbitrator\n\n    constructor(address _DAI, address _arbitrator) public{\n        DAI = ERC20(_DAI);\n        arbitrator = _arbitrator;\n    }\n\n    \n    modifier onlyArbitrator{\n        require(msg.sender == arbitrator);\n        _;\n    }\n\n    event JobCreated(address manager, uint salary, uint noOfTotalPayments, uint JobID, string description);\n\n    /// @notice this function creates a job\n    /// @dev Uses transferFrom on the DAI token contract\n    /// @param _salary is the amount of salary deposited by the manager\n    /// @param _noOfTotalPayments is the number of total payments iterations set by the manager\n    function createJob(string _description, uint _salary, uint _noOfTotalPayments) public {\n        require(_salary > 0);\n        require(_noOfTotalPayments > 0);\n\n        address[] memory empty;\n        uint finalSalary = _salary.sub(_salary.mul(1).div(50));\n\n        Job memory newJob = Job(_description, msg.sender, finalSalary, 0x0, JobStatus.Open, _noOfTotalPayments, 0, 0, 0, 0x0, false, 0, empty, 0);\n        Jobs.push(newJob);\n        JobsByManager[msg.sender].push(jobCount);\n\n        require(DAI.allowance(msg.sender, address(this)) >= _salary);\n\n        emit JobCreated(msg.sender, finalSalary, _noOfTotalPayments, jobCount, _description);\n        jobCount++;\n\n        DAI.transferFrom(msg.sender, address(this), _salary);  \n\n    }\n\n\n    event JobClaimed(address worker, uint JobID);\n\n    /// @notice this function lets the worker claim the job\n    /// @dev Uses transferFrom on the DAI token contract\n    /// @param _JobID is the ID of the job to be claimed by the worker\n    function claimJob(uint _JobID) public {\n        require(_JobID >= 0);\n\n        Job storage job = Jobs[_JobID];\n\n        require(msg.sender != job.manager);\n        require(msg.sender != job.evaluator);\n\n        require(job.status == JobStatus.Open);\n\n        job.worker = msg.sender;\n        job.status = JobStatus.inProgress;\n\n        JobsByWorker[msg.sender].push(_JobID);\n        emit JobClaimed(msg.sender, _JobID);\n\n        \n    }\n\n\n    event EvaluatorSet(uint JobID, address evaluator);\n\n    /// @notice this function lets a registered address become an evaluator for a job\n    /// @param _JobID is the ID of the job for which the sender wants to become an evaluator\n    function setEvaluator(uint _JobID) public {\n        require(_JobID >= 0);\n\n        Job storage job = Jobs[_JobID];\n\n        require(msg.sender != job.manager);\n        require(msg.sender != job.worker);\n\n        job.evaluator = msg.sender;\n        emit EvaluatorSet(_JobID, msg.sender);\n\n    }\n\n\n    event JobCancelled(uint JobID);\n\n    /// @notice this function lets the manager or arbitrator cancel the job\n    /// @dev Uses transfer on the DAI token contract to return DAI from escrow to manager\n    /// @param _JobID is the ID of the job to be cancelled\n    function cancelJob(uint _JobID) public {\n        require(_JobID >= 0);\n\n        Job storage job = Jobs[_JobID];\n\n        if(msg.sender != arbitrator){\n            require(job.manager == msg.sender);\n            require(job.worker == 0x0);\n            require(job.status == JobStatus.Open);\n        }\n\n        job.status = JobStatus.Cancelled;\n        uint returnAmount = job.salaryDeposited; \n\n        emit JobCancelled(_JobID);\n        DAI.transfer(job.manager, returnAmount);\n    }\n\n\n    event PaymentClaimed(address worker, uint amount, uint JobID);\n\n    /// @notice this function lets the worker claim the approved payment\n    /// @dev Uses transfer on the DAI token contract to send DAI from escrow to worker\n    /// @param _JobID is the ID of the job from which the worker intends to claim the DAI tokens\n    function claimPayment(uint _JobID) public {\n        require(_JobID >= 0);\n\n        Job storage job = Jobs[_JobID];\n\n        require(job.worker == msg.sender);\n\n        uint payment = job.paymentAvailableForWorker;\n        require(payment > 0);\n\n        job.paymentAvailableForWorker = 0;\n\n        emit PaymentClaimed(msg.sender, payment, _JobID);\n        DAI.transfer(msg.sender, payment);\n        \n    }\n\n\n    event PaymentApproved(address manager, uint JobID, uint amount);\n\n    /// @notice this function lets the manager to approve payment\n    /// @param _JobID is the ID of the job for which the payment is approved\n    function approvePayment(uint _JobID) public {\n        require(_JobID >= 0);\n\n        Job storage job = Jobs[_JobID];\n\n        if(msg.sender != arbitrator){\n            require(job.manager == msg.sender);\n            require(job.proofOfLastWorkVerified == true);\n        }\n        require(job.noOfTotalPayments > job.noOfPaymentsMade);\n\n        uint currentPayment = job.salaryDeposited.div(job.noOfTotalPayments);\n\n        job.paymentAvailableForWorker = job.paymentAvailableForWorker + currentPayment;\n        job.totalPaidToWorker = job.totalPaidToWorker + currentPayment;\n        job.noOfPaymentsMade++;\n\n        if(job.noOfTotalPayments == job.noOfPaymentsMade){\n            job.status = JobStatus.Completed;\n        }\n\n        emit PaymentApproved(msg.sender, _JobID, currentPayment);\n\n    }\n\n\n    event EvaluatorPaid(address manager, address evaluator, uint JobID, uint payment);\n\n    /// @notice this function lets the manager pay DAI to arbitrator\n    /// @dev Uses transferFrom on the DAI token contract to send DAI from manager to evaluator\n    /// @param _JobID is the ID of the job for which the evaluator is to be paid\n    /// @param _payment is the amount of DAI tokens to be paid to evaluator\n    function payToEvaluator(uint _JobID, uint _payment) public {\n        require(_JobID >= 0);\n        require(_payment > 0);\n\n        Job storage job = Jobs[_JobID];\n        require(msg.sender == job.manager);\n\n        address evaluator = job.evaluator;\n\n        require(DAI.allowance(job.manager, address(this)) >= _payment);\n\n        emit EvaluatorPaid(msg.sender, evaluator, _JobID, _payment);\n        DAI.transferFrom(job.manager, evaluator, _payment);\n\n\n    }\n\n\n    event ProofOfWorkConfirmed(uint JobID, address evaluator, bool proofVerified);\n\n    /// @notice this function lets the evaluator confirm the proof of work provided by worker \n    /// @param _JobID is the ID of the job for which the evaluator confirms proof of work\n    function confirmProofOfWork(uint _JobID) public {\n        require(_JobID >= 0);\n\n        Job storage job = Jobs[_JobID];\n        require(msg.sender == job.evaluator);\n\n        job.proofOfLastWorkVerified = true;\n\n        emit ProofOfWorkConfirmed(_JobID, job.evaluator, true);\n\n    }\n\n    event ProofOfWorkProvided(uint JobID, address worker, bool proofProvided);\n\n    /// @notice this function lets the worker provide proof of work\n    /// @param _JobID is the ID of the job for which worker provides proof\n    function provideProofOfWork(uint _JobID) public {\n        require(_JobID >= 0);\n\n        Job storage job = Jobs[_JobID];\n        require(msg.sender == job.worker);\n\n        job.proofOfLastWorkVerified = false;\n        emit ProofOfWorkProvided(_JobID, msg.sender, true);\n\n    }\n\n\n    event TipMade(address from, address to, uint amount);\n\n    /// @notice this function lets any registered address send DAI tokens to any other address\n    /// @dev Uses transferFrom on the DAI token contract to send DAI from sender's address to receiver's address\n    /// @param _to is the address of the receiver receiving the DAI tokens\n    /// @param _amount is the amount of DAI tokens to be paid to receiving address\n    function tip(address _to, uint _amount) public {\n        require(_to != 0x0);\n        require(_amount > 0);\n        require(DAI.allowance(msg.sender, address(this)) >= _amount);\n\n        emit TipMade(msg.sender, _to, _amount);\n        DAI.transferFrom(msg.sender, _to, _amount);\n    }\n\n\n    event DAISponsored(uint JobID, uint amount, address sponsor);\n    \n    /// @notice this function lets any registered address send DAI tokens to any Job as sponsored tokens\n    /// @dev Uses transferFrom on the DAI token contract to send DAI from sender's address to Escrow\n    /// @param _JobID is the ID of the job for which the sponsor contributes DAI\n    /// @param _amount is the amount of DAI tokens to be sponsored to the Job\n    function sponsorDAI(uint _JobID, uint _amount) public {\n        require(_JobID >= 0);\n        require(_amount > 0);\n\n        Job storage job = Jobs[_JobID];\n\n        if(job.sponsors[msg.sender] == 0){\n            job.sponsorList.push(msg.sender);\n        }\n\n        job.sponsors[msg.sender] = job.sponsors[msg.sender] + _amount;\n        job.sponsoredTokens = job.sponsoredTokens + _amount;\n\n        emit DAISponsored(_JobID, _amount, msg.sender);\n        \n        require(DAI.allowance(msg.sender, address(this)) >= _amount);\n        DAI.transferFrom(msg.sender, address(this), _amount);\n    }\n\n\n    event DAIWithdrawn(address receiver, uint amount);\n\n    /// @notice this function lets arbitrator withdraw DAI to the provided address \n    /// @dev Uses transfer on the DAI token contract to send DAI from Escrow to the provided address\n    /// @param _receiver is the receiving the withdrawn DAI tokens\n    /// @param _amount is the amount of DAI tokens to be withdrawn\n    function withdrawDAI(address _receiver, uint _amount) public onlyArbitrator {\n        require(_receiver != 0x0);\n        require(_amount > 0);\n        \n        require(DAI.balanceOf(address(this)) >= _amount);\n\n        DAI.transfer(_receiver, _amount);\n        emit DAIWithdrawn(_receiver, _amount);\n    }\n\n\n    /// @notice this function lets get an amount of sponsored DAI by an address in a given job\n    /// @param _JobID is the Job for the job\n    /// @param _sponsor is the address of sponsor for which we are retreiving the sponsored tokens amount\n    function get_Sponsored_Amount_in_Job_By_Address(uint _JobID, address _sponsor) public view returns (uint) {\n        require(_JobID >= 0);\n        require(_sponsor != 0x0);\n\n        Job storage job = Jobs[_JobID];\n\n        return job.sponsors[_sponsor];\n    }\n\n\n    /// @notice this function lets retreive the list of all sponsors in a given job\n    /// @param _JobID is the Job for the job for which we are retrieving the list of sponsors\n    function get_Sponsors_list_by_Job(uint _JobID) public view returns (address[] list) {\n        require(_JobID >= 0);\n\n        Job storage job = Jobs[_JobID];\n\n        list = new address[](job.sponsorsCount);\n\n        list = job.sponsorList;\n    }\n\n\n    function getJob(uint _JobID) public view returns ( string _description, address _manager, uint _salaryDeposited, address _worker, uint _status, uint _noOfTotalPayments, uint _noOfPaymentsMade, uint _paymentAvailableForWorker, uint _totalPaidToWorker, address _evaluator, bool _proofOfLastWorkVerified, uint _sponsoredTokens, uint _sponsorsCount) {\n        require(_JobID >= 0);\n\n        Job storage job = Jobs[_JobID];\n        _description = job.description;\n        _manager = job.manager;\n        _salaryDeposited = job.salaryDeposited;             \n        _worker = job.worker;                   \n        _status = uint(job.status);                 \n        _noOfTotalPayments = job.noOfTotalPayments;           \n        _noOfPaymentsMade = job.noOfPaymentsMade;           \n        _paymentAvailableForWorker = job.paymentAvailableForWorker;   \n        _totalPaidToWorker = job.totalPaidToWorker;           \n        _evaluator = job.evaluator;               \n        _proofOfLastWorkVerified = job.proofOfLastWorkVerified;     \n        _sponsoredTokens = job.sponsoredTokens;             \n        _sponsorsCount = job.sponsorsCount;\n    }\n\n}\n\n",
  "sourcePath": "/Users/Farah/Desktop/travay/contracts/contracts/Escrow.sol",
  "compiler": {
    "name": "solc",
    "version": "0.4.24+commit.e67f0147.Emscripten.clang"
  },
  "schemaVersion": "2.0.1",
  "updatedAt": "2018-09-13T17:36:21.318Z"
}