{
  "contractName": "Escrow",
  "abi": [
    {
      "constant": true,
      "inputs": [
        {
          "name": "",
          "type": "address"
        }
      ],
      "name": "registeredUsers",
      "outputs": [
        {
          "name": "",
          "type": "bool"
        }
      ],
      "payable": false,
      "stateMutability": "view",
      "type": "function"
    },
    {
      "constant": true,
      "inputs": [
        {
          "name": "",
          "type": "uint256"
        }
      ],
      "name": "Jobs",
      "outputs": [
        {
          "name": "description",
          "type": "string"
        },
        {
          "name": "manager",
          "type": "address"
        },
        {
          "name": "salaryDeposited",
          "type": "uint256"
        },
        {
          "name": "worker",
          "type": "address"
        },
        {
          "name": "status",
          "type": "uint8"
        },
        {
          "name": "noOfTotalPayments",
          "type": "uint256"
        },
        {
          "name": "noOfPaymentsMade",
          "type": "uint256"
        },
        {
          "name": "paymentAvailableForWorker",
          "type": "uint256"
        },
        {
          "name": "totalPaidToWorker",
          "type": "uint256"
        },
        {
          "name": "evaluator",
          "type": "address"
        },
        {
          "name": "proofOfLastWorkVerified",
          "type": "bool"
        },
        {
          "name": "sponsoredTokens",
          "type": "uint256"
        },
        {
          "name": "sponsorsCount",
          "type": "uint256"
        }
      ],
      "payable": false,
      "stateMutability": "view",
      "type": "function"
    },
    {
      "constant": true,
      "inputs": [
        {
          "name": "",
          "type": "address"
        },
        {
          "name": "",
          "type": "uint256"
        }
      ],
      "name": "JobsByManager",
      "outputs": [
        {
          "name": "",
          "type": "uint256"
        }
      ],
      "payable": false,
      "stateMutability": "view",
      "type": "function"
    },
    {
      "constant": true,
      "inputs": [],
      "name": "jobCount",
      "outputs": [
        {
          "name": "",
          "type": "uint256"
        }
      ],
      "payable": false,
      "stateMutability": "view",
      "type": "function"
    },
    {
      "constant": true,
      "inputs": [],
      "name": "arbitrator",
      "outputs": [
        {
          "name": "",
          "type": "address"
        }
      ],
      "payable": false,
      "stateMutability": "view",
      "type": "function"
    },
    {
      "constant": true,
      "inputs": [],
      "name": "DAI",
      "outputs": [
        {
          "name": "",
          "type": "address"
        }
      ],
      "payable": false,
      "stateMutability": "view",
      "type": "function"
    },
    {
      "constant": true,
      "inputs": [
        {
          "name": "",
          "type": "address"
        },
        {
          "name": "",
          "type": "uint256"
        }
      ],
      "name": "JobsByWorker",
      "outputs": [
        {
          "name": "",
          "type": "uint256"
        }
      ],
      "payable": false,
      "stateMutability": "view",
      "type": "function"
    },
    {
      "inputs": [
        {
          "name": "_DAI",
          "type": "address"
        },
        {
          "name": "_arbitrator",
          "type": "address"
        }
      ],
      "payable": false,
      "stateMutability": "nonpayable",
      "type": "constructor"
    },
    {
      "anonymous": false,
      "inputs": [
        {
          "indexed": false,
          "name": "address_Registered",
          "type": "address"
        }
      ],
      "name": "Register",
      "type": "event"
    },
    {
      "anonymous": false,
      "inputs": [
        {
          "indexed": false,
          "name": "manager",
          "type": "address"
        },
        {
          "indexed": false,
          "name": "salary",
          "type": "uint256"
        },
        {
          "indexed": false,
          "name": "noOfTotalPayments",
          "type": "uint256"
        },
        {
          "indexed": false,
          "name": "JobID",
          "type": "uint256"
        },
        {
          "indexed": false,
          "name": "description",
          "type": "string"
        }
      ],
      "name": "JobCreated",
      "type": "event"
    },
    {
      "anonymous": false,
      "inputs": [
        {
          "indexed": false,
          "name": "worker",
          "type": "address"
        },
        {
          "indexed": false,
          "name": "JobID",
          "type": "uint256"
        }
      ],
      "name": "JobClaimed",
      "type": "event"
    },
    {
      "anonymous": false,
      "inputs": [
        {
          "indexed": false,
          "name": "JobID",
          "type": "uint256"
        },
        {
          "indexed": false,
          "name": "evaluator",
          "type": "address"
        }
      ],
      "name": "EvaluatorSet",
      "type": "event"
    },
    {
      "anonymous": false,
      "inputs": [
        {
          "indexed": false,
          "name": "JobID",
          "type": "uint256"
        }
      ],
      "name": "JobCancelled",
      "type": "event"
    },
    {
      "anonymous": false,
      "inputs": [
        {
          "indexed": false,
          "name": "worker",
          "type": "address"
        },
        {
          "indexed": false,
          "name": "amount",
          "type": "uint256"
        },
        {
          "indexed": false,
          "name": "JobID",
          "type": "uint256"
        }
      ],
      "name": "PaymentClaimed",
      "type": "event"
    },
    {
      "anonymous": false,
      "inputs": [
        {
          "indexed": false,
          "name": "manager",
          "type": "address"
        },
        {
          "indexed": false,
          "name": "JobID",
          "type": "uint256"
        },
        {
          "indexed": false,
          "name": "amount",
          "type": "uint256"
        }
      ],
      "name": "PaymentApproved",
      "type": "event"
    },
    {
      "anonymous": false,
      "inputs": [
        {
          "indexed": false,
          "name": "manager",
          "type": "address"
        },
        {
          "indexed": false,
          "name": "evaluator",
          "type": "address"
        },
        {
          "indexed": false,
          "name": "JobID",
          "type": "uint256"
        },
        {
          "indexed": false,
          "name": "payment",
          "type": "uint256"
        }
      ],
      "name": "EvaluatorPaid",
      "type": "event"
    },
    {
      "anonymous": false,
      "inputs": [
        {
          "indexed": false,
          "name": "JobID",
          "type": "uint256"
        },
        {
          "indexed": false,
          "name": "evaluator",
          "type": "address"
        },
        {
          "indexed": false,
          "name": "proofVerified",
          "type": "bool"
        }
      ],
      "name": "ProofOfWorkConfirmed",
      "type": "event"
    },
    {
      "anonymous": false,
      "inputs": [
        {
          "indexed": false,
          "name": "JobID",
          "type": "uint256"
        },
        {
          "indexed": false,
          "name": "worker",
          "type": "address"
        },
        {
          "indexed": false,
          "name": "proofProvided",
          "type": "bool"
        }
      ],
      "name": "ProofOfWorkProvided",
      "type": "event"
    },
    {
      "anonymous": false,
      "inputs": [
        {
          "indexed": false,
          "name": "from",
          "type": "address"
        },
        {
          "indexed": false,
          "name": "to",
          "type": "address"
        },
        {
          "indexed": false,
          "name": "amount",
          "type": "uint256"
        }
      ],
      "name": "TipMade",
      "type": "event"
    },
    {
      "anonymous": false,
      "inputs": [
        {
          "indexed": false,
          "name": "JobID",
          "type": "uint256"
        },
        {
          "indexed": false,
          "name": "amount",
          "type": "uint256"
        },
        {
          "indexed": false,
          "name": "sponsor",
          "type": "address"
        }
      ],
      "name": "DAISponsored",
      "type": "event"
    },
    {
      "anonymous": false,
      "inputs": [
        {
          "indexed": false,
          "name": "receiver",
          "type": "address"
        },
        {
          "indexed": false,
          "name": "amount",
          "type": "uint256"
        }
      ],
      "name": "DAIWithdrawn",
      "type": "event"
    },
    {
      "constant": false,
      "inputs": [],
      "name": "register",
      "outputs": [],
      "payable": false,
      "stateMutability": "nonpayable",
      "type": "function"
    },
    {
      "constant": false,
      "inputs": [
        {
          "name": "_description",
          "type": "string"
        },
        {
          "name": "_salary",
          "type": "uint256"
        },
        {
          "name": "_noOfTotalPayments",
          "type": "uint256"
        }
      ],
      "name": "createJob",
      "outputs": [],
      "payable": false,
      "stateMutability": "nonpayable",
      "type": "function"
    },
    {
      "constant": false,
      "inputs": [
        {
          "name": "_JobID",
          "type": "uint256"
        }
      ],
      "name": "claimJob",
      "outputs": [],
      "payable": false,
      "stateMutability": "nonpayable",
      "type": "function"
    },
    {
      "constant": false,
      "inputs": [
        {
          "name": "_JobID",
          "type": "uint256"
        }
      ],
      "name": "setEvaluator",
      "outputs": [],
      "payable": false,
      "stateMutability": "nonpayable",
      "type": "function"
    },
    {
      "constant": false,
      "inputs": [
        {
          "name": "_JobID",
          "type": "uint256"
        }
      ],
      "name": "cancelJob",
      "outputs": [],
      "payable": false,
      "stateMutability": "nonpayable",
      "type": "function"
    },
    {
      "constant": false,
      "inputs": [
        {
          "name": "_JobID",
          "type": "uint256"
        }
      ],
      "name": "claimPayment",
      "outputs": [],
      "payable": false,
      "stateMutability": "nonpayable",
      "type": "function"
    },
    {
      "constant": false,
      "inputs": [
        {
          "name": "_JobID",
          "type": "uint256"
        }
      ],
      "name": "approvePayment",
      "outputs": [],
      "payable": false,
      "stateMutability": "nonpayable",
      "type": "function"
    },
    {
      "constant": false,
      "inputs": [
        {
          "name": "_JobID",
          "type": "uint256"
        },
        {
          "name": "_payment",
          "type": "uint256"
        }
      ],
      "name": "payToEvaluator",
      "outputs": [],
      "payable": false,
      "stateMutability": "nonpayable",
      "type": "function"
    },
    {
      "constant": false,
      "inputs": [
        {
          "name": "_JobID",
          "type": "uint256"
        }
      ],
      "name": "confirmProofOfWork",
      "outputs": [],
      "payable": false,
      "stateMutability": "nonpayable",
      "type": "function"
    },
    {
      "constant": false,
      "inputs": [
        {
          "name": "_JobID",
          "type": "uint256"
        }
      ],
      "name": "provideProofOfWork",
      "outputs": [],
      "payable": false,
      "stateMutability": "nonpayable",
      "type": "function"
    },
    {
      "constant": false,
      "inputs": [
        {
          "name": "_to",
          "type": "address"
        },
        {
          "name": "_amount",
          "type": "uint256"
        }
      ],
      "name": "tip",
      "outputs": [],
      "payable": false,
      "stateMutability": "nonpayable",
      "type": "function"
    },
    {
      "constant": false,
      "inputs": [
        {
          "name": "_JobID",
          "type": "uint256"
        },
        {
          "name": "_amount",
          "type": "uint256"
        }
      ],
      "name": "sponsorDAI",
      "outputs": [],
      "payable": false,
      "stateMutability": "nonpayable",
      "type": "function"
    },
    {
      "constant": false,
      "inputs": [
        {
          "name": "_receiver",
          "type": "address"
        },
        {
          "name": "_amount",
          "type": "uint256"
        }
      ],
      "name": "withdrawDAI",
      "outputs": [],
      "payable": false,
      "stateMutability": "nonpayable",
      "type": "function"
    },
    {
      "constant": true,
      "inputs": [
        {
          "name": "_JobID",
          "type": "uint256"
        },
        {
          "name": "_sponsor",
          "type": "address"
        }
      ],
      "name": "get_Sponsored_Amount_in_Job_By_Address",
      "outputs": [
        {
          "name": "",
          "type": "uint256"
        }
      ],
      "payable": false,
      "stateMutability": "view",
      "type": "function"
    },
    {
      "constant": true,
      "inputs": [
        {
          "name": "_JobID",
          "type": "uint256"
        }
      ],
      "name": "get_Sponsors_list_by_Job",
      "outputs": [
        {
          "name": "list",
          "type": "address[]"
        }
      ],
      "payable": false,
      "stateMutability": "view",
      "type": "function"
    },
    {
      "constant": true,
      "inputs": [
        {
          "name": "_JobID",
          "type": "uint256"
        }
      ],
      "name": "getJob",
      "outputs": [
        {
          "name": "_description",
          "type": "string"
        },
        {
          "name": "_manager",
          "type": "address"
        },
        {
          "name": "_salaryDeposited",
          "type": "uint256"
        },
        {
          "name": "_worker",
          "type": "address"
        },
        {
          "name": "_status",
          "type": "uint256"
        },
        {
          "name": "_noOfTotalPayments",
          "type": "uint256"
        },
        {
          "name": "_noOfPaymentsMade",
          "type": "uint256"
        },
        {
          "name": "_paymentAvailableForWorker",
          "type": "uint256"
        },
        {
          "name": "_totalPaidToWorker",
          "type": "uint256"
        },
        {
          "name": "_evaluator",
          "type": "address"
        },
        {
          "name": "_proofOfLastWorkVerified",
          "type": "bool"
        },
        {
          "name": "_sponsoredTokens",
          "type": "uint256"
        },
        {
          "name": "_sponsorsCount",
          "type": "uint256"
        }
      ],
      "payable": false,
      "stateMutability": "view",
      "type": "function"
    }
  ],
  "bytecode": "0x6080604052600060055534801561001557600080fd5b50604051604080612136833981016040908152815160209283015160048054600160a060020a03938416600160a060020a0319918216179091556006805492841692909116919091179081905516600090815260039092529020805460ff191660011790556120ad806100896000396000f3006080604052600436106101325763ffffffff7c0100000000000000000000000000000000000000000000000000000000600035041663045c123a81146101375780630e50cee5146101545780631aa3a008146101895780631ce10a9d1461019e5780631dffa3dc146101d45780632cc772f0146101ec578063350dbcc5146103015780633db8352d146103695780633efdf840146103815780634c5d8a0f146103a557806355c79f49146103ba5780636cc6cde1146103d557806379c62711146104065780638b6fc45214610468578063bf22c4571461048c578063c63fdcc714610562578063c7d586c91461057a578063de14c81814610592578063e0bab4c4146105aa578063e3e4b9fb146105bf578063eabdd572146105d7578063ee99881f146105fb578063fff9d5b91461061f575b600080fd5b34801561014357600080fd5b50610152600435602435610637565b005b34801561016057600080fd5b50610175600160a060020a0360043516610850565b604080519115158252519081900360200190f35b34801561019557600080fd5b50610152610865565b3480156101aa57600080fd5b506101c2600435600160a060020a03602435166108d3565b60408051918252519081900360200190f35b3480156101e057600080fd5b5061015260043561093b565b3480156101f857600080fd5b50610204600435610ac8565b60408051600160a060020a03808f1660208301529181018d9052908b16606082015280608081018b600381111561023757fe5b60ff1681526020018a815260200189815260200188815260200187815260200186600160a060020a0316600160a060020a031681526020018515151515815260200184815260200183815260200182810382528f818151815260200191508051906020019080838360005b838110156102ba5781810151838201526020016102a2565b50505050905090810190601f1680156102e75780820380516001836020036101000a031916815260200191505b509e50505050505050505050505050505060405180910390f35b34801561030d57600080fd5b50610319600435610bdf565b60408051602080825283518183015283519192839290830191858101910280838360005b8381101561035557818101518382015260200161033d565b505050509050019250505060405180910390f35b34801561037557600080fd5b50610152600435610c9f565b34801561038d57600080fd5b506101c2600160a060020a0360043516602435610d76565b3480156103b157600080fd5b506101c2610da6565b3480156103c657600080fd5b50610152600435602435610dac565b3480156103e157600080fd5b506103ea610faa565b60408051600160a060020a039092168252519081900360200190f35b34801561041257600080fd5b506040805160206004803580820135601f8101849004840285018401909552848452610152943694929360249392840191908190840183828082843750949750508435955050506020909201359150610fb99050565b34801561047457600080fd5b50610152600160a060020a0360043516602435611423565b34801561049857600080fd5b506104a46004356115cb565b60405180806020018e600160a060020a0316600160a060020a031681526020018d81526020018c600160a060020a0316600160a060020a031681526020018b81526020018a815260200189815260200188815260200187815260200186600160a060020a0316600160a060020a031681526020018515151515815260200184815260200183815260200182810382528f81815181526020019150805190602001908083836000838110156102ba5781810151838201526020016102a2565b34801561056e57600080fd5b5061015260043561175b565b34801561058657600080fd5b5061015260043561188c565b34801561059e57600080fd5b50610152600435611947565b3480156105b657600080fd5b506103ea611aa8565b3480156105cb57600080fd5b50610152600435611ab7565b3480156105e357600080fd5b50610152600160a060020a0360043516602435611be5565b34801561060757600080fd5b506101c2600160a060020a0360043516602435611da5565b34801561062b57600080fd5b50610152600435611dc0565b3360009081526003602052604081205460ff16151561065557600080fd5b600083101561066357600080fd5b6000821161067057600080fd5b600080548490811061067e57fe5b60009182526020808320338452600a600d90930201918201905260409091205490915015156106cf57600b8101805460018101825560009182526020909120018054600160a060020a031916331790555b336000818152600a8301602090815260409182902080548601905560098401805486019055815186815290810185905280820192909252517f1c457be2c879623ab0a03d6ac7897b46f5299948b3624f67925a5077c3cf56f19181900360600190a1600480546040805160e160020a636eb1769f0281523393810193909352306024840152518492600160a060020a039092169163dd62ed3e9160448083019260209291908290030181600087803b15801561078a57600080fd5b505af115801561079e573d6000803e3d6000fd5b505050506040513d60208110156107b457600080fd5b505110156107c157600080fd5b600480546040805160e060020a6323b872dd02815233938101939093523060248401526044830185905251600160a060020a03909116916323b872dd9160648083019260209291908290030181600087803b15801561081f57600080fd5b505af1158015610833573d6000803e3d6000fd5b505050506040513d602081101561084957600080fd5b5050505050565b60036020526000908152604090205460ff1681565b3360009081526003602052604090205460ff161561088257600080fd5b33600081815260036020908152604091829020805460ff19166001179055815192835290517feeda149c76076b34d4b9d8896c2f7efc0d33d1c7b53ea3c5db490d64613f603a9281900390910190a1565b600080808410156108e357600080fd5b600160a060020a03831615156108f857600080fd5b600080548590811061090657fe5b60009182526020808320600160a060020a0387168452600a600d909302019182019052604090912054925090505b5092915050565b33600090815260036020526040812054819060ff16151561095b57600080fd5b600083101561096957600080fd5b600080548490811061097757fe5b60009182526020909120600654600d909202019250600160a060020a031633146109f2576001820154600160a060020a031633146109b457600080fd5b6003820154600160a060020a0316156109cc57600080fd5b600060038381015460a060020a900460ff16908111156109e857fe5b146109f257600080fd5b5060038101805460a060020a60ff0219167403000000000000000000000000000000000000000017905560028101546040805184815290517f58243f872c550ad02802199ade99eb4250f6bb19e9abbf2d3de7b969c0eb5e4f9181900360200190a1600480546001840154604080517fa9059cbb000000000000000000000000000000000000000000000000000000008152600160a060020a0392831694810194909452602484018590525191169163a9059cbb9160448083019260209291908290030181600087803b15801561081f57600080fd5b6000805482908110610ad657fe5b6000918252602091829020600d919091020180546040805160026001841615610100026000190190931692909204601f810185900485028301850190915280825291935091839190830182828015610b6f5780601f10610b4457610100808354040283529160200191610b6f565b820191906000526020600020905b815481529060010190602001808311610b5257829003601f168201915b50505060018401546002850154600386015460048701546005880154600689015460078a015460088b015460098c0154600c909c01549a9b600160a060020a039889169b979a50868916995060ff60a060020a97889004811699969895979496939593831694909204909116918d565b6060600080831015610bf057600080fd5b6000805484908110610bfe57fe5b90600052602060002090600d0201905080600c0154604051908082528060200260200182016040528015610c3c578160200160208202803883390190505b50600b8201805460408051602080840282018101909252828152939550830182828015610c9257602002820191906000526020600020905b8154600160a060020a03168152600190910190602001808311610c74575b5050505050915050919050565b3360009081526003602052604081205460ff161515610cbd57600080fd5b6000821015610ccb57600080fd5b6000805483908110610cd957fe5b60009182526020909120600d909102016001810154909150600160a060020a0316331415610d0657600080fd5b6003810154600160a060020a0316331415610d2057600080fd5b600881018054600160a060020a0319163390811790915560408051848152602081019290925280517f86a26a3cfa472a1cc2574ccd8f27a18b3235f3c56d77cd181abf6051b89fbe0b9281900390910190a15050565b600160205281600052604060002081815481101515610d9157fe5b90600052602060002001600091509150505481565b60055481565b33600090815260036020526040812054819060ff161515610dcc57600080fd5b6000841015610dda57600080fd5b60008311610de757600080fd5b6000805485908110610df557fe5b60009182526020909120600d909102016001810154909250600160a060020a03163314610e2157600080fd5b5060088101546004805460018401546040805160e160020a636eb1769f028152600160a060020a039283169481019490945230602485015251938116938693929091169163dd62ed3e9160448083019260209291908290030181600087803b158015610e8c57600080fd5b505af1158015610ea0573d6000803e3d6000fd5b505050506040513d6020811015610eb657600080fd5b50511015610ec357600080fd5b60408051338152600160a060020a03831660208201528082018690526060810185905290517f252833651492b0b7c47daf95a55c2387daecb53e25ab98d5925ec199eab64de19181900360800190a16004805460018401546040805160e060020a6323b872dd028152600160a060020a0392831694810194909452848216602485015260448401879052519116916323b872dd9160648083019260209291908290030181600087803b158015610f7857600080fd5b505af1158015610f8c573d6000803e3d6000fd5b505050506040513d6020811015610fa257600080fd5b505050505050565b600654600160a060020a031681565b60606000610fc5611ee7565b3360009081526003602052604090205460ff161515610fe357600080fd5b60008511610ff057600080fd5b60008411610ffd57600080fd5b61102f611022603261101688600163ffffffff611e8c16565b9063ffffffff611ebe16565b869063ffffffff611ed516565b604080516101c08101825288815233602082015290810182905260006060820181905291935090608082019081526020808201879052600060408301819052606083018190526080830181905260a0830181905260c0830181905260e0830181905261010083018790526101209092018290528154600181018084559280528351805194955092938593600d9092027f290decd9548b62a8d60345a988386fc84ba6bc95484008f6362f93160ef3e56301926110ef928492910190611f61565b506020820151600182018054600160a060020a0319908116600160a060020a039384161790915560408401516002840155606084015160038085018054909316919093161780825560808501519260a060020a60ff02199091169060a060020a90849081111561115b57fe5b021790555060a0820151600482015560c0820151600582015560e082015160068201556101008201516007820155610120820151600882018054610140850151151560a060020a0260a060020a60ff0219600160a060020a03909416600160a060020a03199092169190911792909216919091179055610160820151600982015561018082015180516111f891600b840191602090910190611fdf565b506101a09190910151600c9091015550336000818152600160208181526040808420600554815494850182559085528285209093019290925560048054835160e160020a636eb1769f0281529182019590955230602482015291518994600160a060020a03169363dd62ed3e936044808201949392918390030190829087803b15801561128457600080fd5b505af1158015611298573d6000803e3d6000fd5b505050506040513d60208110156112ae57600080fd5b505110156112bb57600080fd5b7f5115e997a3da4520486657eb4f915f5b9e816d0aad787b228046cc84191e38653383866005548a6040518086600160a060020a0316600160a060020a0316815260200185815260200184815260200183815260200180602001828103825283818151815260200191508051906020019080838360005b8381101561134a578181015183820152602001611332565b50505050905090810190601f1680156113775780820380516001836020036101000a031916815260200191505b50965050505050505060405180910390a1600580546001019055600480546040805160e060020a6323b872dd02815233938101939093523060248401526044830188905251600160a060020a03909116916323b872dd9160648083019260209291908290030181600087803b1580156113ef57600080fd5b505af1158015611403573d6000803e3d6000fd5b505050506040513d602081101561141957600080fd5b5050505050505050565b3360009081526003602052604090205460ff16151561144157600080fd5b600160a060020a038216151561145657600080fd5b6000811161146357600080fd5b600480546040805160e160020a636eb1769f0281523393810193909352306024840152518392600160a060020a039092169163dd62ed3e9160448083019260209291908290030181600087803b1580156114bc57600080fd5b505af11580156114d0573d6000803e3d6000fd5b505050506040513d60208110156114e657600080fd5b505110156114f357600080fd5b60408051338152600160a060020a038416602082015280820183905290517f4a77089dfd9dbec216f58a2b7573fedbe288820f466c1e53225e332b6feede1d9181900360600190a1600480546040805160e060020a6323b872dd0281523393810193909352600160a060020a0385811660248501526044840185905290519116916323b872dd9160648083019260209291908290030181600087803b15801561159b57600080fd5b505af11580156115af573d6000803e3d6000fd5b505050506040513d60208110156115c557600080fd5b50505050565b60606000808080808080808080808080808f10156115e857600080fd5b60008f8154811015156115f757fe5b6000918252602091829020600d919091020180546040805160026001841615610100026000190190931692909204601f8101859004850283018501909152808252919350918391908301828280156116905780601f1061166557610100808354040283529160200191611690565b820191906000526020600020905b81548152906001019060200180831161167357829003601f168201915b50505050509d508060010160009054906101000a9004600160a060020a03169c5080600201549b508060030160009054906101000a9004600160a060020a03169a508060030160149054906101000a900460ff1660038111156116ef57fe5b9950806004015498508060050154975080600601549650806007015495508060080160009054906101000a9004600160a060020a031694508060080160149054906101000a900460ff1693508060090154925080600c015491505091939597999b9d90929496989a9c50565b33600090815260036020526040812054819060ff16151561177b57600080fd5b600083101561178957600080fd5b600080548490811061179757fe5b600091825260209091206003600d9092020190810154909250600160a060020a031633146117c457600080fd5b506006810154600081116117d757600080fd5b60006006830155604080513381526020810183905280820185905290517fe382930a1e1c9d4208204fa93e9089518e327044527d4428dbe71c8f812d0dbe9181900360600190a160048054604080517fa9059cbb00000000000000000000000000000000000000000000000000000000815233938101939093526024830184905251600160a060020a039091169163a9059cbb9160448083019260209291908290030181600087803b15801561081f57600080fd5b3360009081526003602052604081205460ff1615156118aa57600080fd5b60008210156118b857600080fd5b60008054839081106118c657fe5b60009182526020909120600d909102016003810154909150600160a060020a031633146118f257600080fd5b60088101805460a060020a60ff02191690556040805183815233602082015260018183015290517fb26435406dda1fc61b5703a66daa2107824bd43a82e87aa214a1da46c18234c79181900360600190a15050565b33600090815260036020526040812054819060ff16151561196757600080fd5b600083101561197557600080fd5b600080548490811061198357fe5b60009182526020909120600654600d909202019250600160a060020a031633146119dd576001820154600160a060020a031633146119c057600080fd5b600882015460a060020a900460ff1615156001146119dd57600080fd5b60058201546004830154116119f157600080fd5b60048201546002830154611a0a9163ffffffff611ebe16565b60068301805482019055600783018054820190556005830180546001019081905560048401549192501415611a635760038201805460a060020a60ff021916740200000000000000000000000000000000000000001790555b604080513381526020810185905280820183905290517f7368f4cd15f07fb68c74d99d33bd632a5964e34b2c40ed0a95f14ce44826b6429181900360600190a1505050565b600454600160a060020a031681565b3360009081526003602052604081205460ff161515611ad557600080fd5b6000821015611ae357600080fd5b6000805483908110611af157fe5b60009182526020909120600d909102016001810154909150600160a060020a0316331415611b1e57600080fd5b6008810154600160a060020a0316331415611b3857600080fd5b600060038281015460a060020a900460ff1690811115611b5457fe5b14611b5e57600080fd5b600381018054600160a060020a0319163390811760a060020a60ff02191660a060020a1790915560008181526002602090815260408083208054600181018255908452928290209092018590558151928352820184905280517fc72e2794bcdce0065fa06608f52c431785279713b06caa16a06519e54c29a4cc9281900390910190a15050565b600654600160a060020a03163314611bfc57600080fd5b600160a060020a0382161515611c1157600080fd5b60008111611c1e57600080fd5b60048054604080517f70a082310000000000000000000000000000000000000000000000000000000081523093810193909352518392600160a060020a03909216916370a082319160248083019260209291908290030181600087803b158015611c8757600080fd5b505af1158015611c9b573d6000803e3d6000fd5b505050506040513d6020811015611cb157600080fd5b50511015611cbe57600080fd5b60048054604080517fa9059cbb000000000000000000000000000000000000000000000000000000008152600160a060020a0386811694820194909452602481018590529051929091169163a9059cbb916044808201926020929091908290030181600087803b158015611d3157600080fd5b505af1158015611d45573d6000803e3d6000fd5b505050506040513d6020811015611d5b57600080fd5b505060408051600160a060020a03841681526020810183905281517f9be23a2f8c21c5935ad4208c3739632108a4cef5c82e4d909f94c0f377ed0e33929181900390910190a15050565b600260205281600052604060002081815481101515610d9157fe5b3360009081526003602052604081205460ff161515611dde57600080fd5b6000821015611dec57600080fd5b6000805483908110611dfa57fe5b60009182526020909120600d909102016008810154909150600160a060020a03163314611e2657600080fd5b60088101805460a060020a60ff02191660a060020a179081905560408051848152600160a060020a039092166020830152600182820152517f891acbd824988c7f263b375de6b684e2a4004dccb766869697d6059c80e95bb89181900360600190a15050565b600080831515611e9f5760009150610934565b50828202828482811515611eaf57fe5b0414611eb757fe5b9392505050565b6000808284811515611ecc57fe5b04949350505050565b600082821115611ee157fe5b50900390565b604080516101c081018252606080825260006020830181905292820183905281018290529060808201908152602001600081526020016000815260200160008152602001600081526020016000600160a060020a031681526020016000151581526020016000815260200160608152602001600081525090565b828054600181600116156101000203166002900490600052602060002090601f016020900481019282601f10611fa257805160ff1916838001178555611fcf565b82800160010185558215611fcf579182015b82811115611fcf578251825591602001919060010190611fb4565b50611fdb929150612040565b5090565b828054828255906000526020600020908101928215612034579160200282015b828111156120345782518254600160a060020a031916600160a060020a03909116178255602090920191600190910190611fff565b50611fdb92915061205d565b61205a91905b80821115611fdb5760008155600101612046565b90565b61205a91905b80821115611fdb578054600160a060020a03191681556001016120635600a165627a7a72305820c1023b12351082c04b88e5a35e506fbe9fd4abac726e80adbf29cdf5b36fcbd90029",
  "source": "pragma solidity ^0.4.23;\n\n\nlibrary SafeMath {\n\n  /**\n  * @dev Multiplies two numbers, throws on overflow.\n  */\n    function mul(uint256 a, uint256 b) internal pure returns (uint256) {\n        if (a == 0) {\n            return 0;\n        }\n        uint256 c = a * b;\n        assert(c / a == b);\n        return c;\n    }\n\n  /**\n  * @dev Integer division of two numbers, truncating the quotient.\n  */\n    function div(uint256 a, uint256 b) internal pure returns (uint256) {\n        // assert(b > 0); // Solidity automatically throws when dividing by 0\n        uint256 c = a / b;\n        // assert(a == b * c + a % b); // There is no case in which this doesn't hold\n        return c;\n    }\n\n  /**\n  * @dev Substracts two numbers, throws on overflow (i.e. if subtrahend is greater than minuend).\n  */\n    function sub(uint256 a, uint256 b) internal pure returns (uint256) {\n        assert(b <= a);\n        return a - b;\n    }\n\n    /**\n    * @dev Adds two numbers, throws on overflow.\n    */\n    function add(uint256 a, uint256 b) internal pure returns (uint256) {\n        uint256 c = a + b;\n        assert(c >= a);\n        return c;\n    }\n}\n\n\ncontract ERC20Basic {\n    function totalSupply() public view returns (uint256);\n    function balanceOf(address who) public view returns (uint256);\n    function transfer(address to, uint256 value) public returns (bool);\n    event Transfer(address indexed from, address indexed to, uint256 value);\n}\n\n\ncontract ERC20 is ERC20Basic {\n    function allowance(address owner, address spender) public view returns (uint256);\n    function transferFrom(address from, address to, uint256 value) public returns (bool);\n    function approve(address spender, uint256 value) public returns (bool);\n    event Approval(address indexed owner, address indexed spender, uint256 value);\n}\n\n\n/// @title Escrow contract\n/// @author Farah\n/// @notice It's a contract for escrow based creating, claiming and rewarding jobs.\n\ncontract Escrow{\n\n    using SafeMath for uint;\n    enum JobStatus { Open, inProgress, Completed, Cancelled }\n\n    struct Job{\n        string description;               // description of job\n        // uint JobID;                       // Id of the job\n        address manager;                  // address of manager\n        uint salaryDeposited;             // salary deposited by manager\n        address worker;                   // address of worker\n        JobStatus status;                 // current status of the job\n        uint noOfTotalPayments;           // total number of Payments set by the manager\n        uint noOfPaymentsMade;            // number of payments that have already been made\n        uint paymentAvailableForWorker;   // amount of DAI tokens available for the worker as claimable\n        uint totalPaidToWorker;           // total amount of DAI tokens paid to worker so far for this job\n        address evaluator;                // address of evaluator for this job\n        bool proofOfLastWorkVerified;     // status of the proof of work for the last milestone\n        uint sponsoredTokens;             // amount of DAI tokens sponsored to the job\n        mapping(address => uint) sponsors; // mapping of all the sponsors with their contributions for a job\n        address[] sponsorList;             // List of addresses for all sponsors for iterations\n        uint sponsorsCount;                // total number of contributors for this job\n    }\n\n    Job[] public Jobs;                    // List of all the jobs\n\n\n    mapping(address => uint[]) public JobsByManager;        // all the jobs held by a manager\n    mapping(address => uint[]) public JobsByWorker;         // all the jobs held by a worker\n\n    mapping(address => bool) public registeredUsers;        // list of all the registered users\n\n    ERC20 public DAI;\n\n    uint public jobCount = 0;     // current count of the total Jobs\n\n    address public arbitrator;     // address of arbitrator\n\n    constructor(address _DAI, address _arbitrator) public{\n        DAI = ERC20(_DAI);\n        arbitrator = _arbitrator;\n        registeredUsers[arbitrator] = true;\n    }\n\n    modifier onlyRegisteredUser(){\n        require(registeredUsers[msg.sender]);  // only execute function if the sender is a registered address\n        _;\n    }\n\n    modifier onlyArbitrator{\n        require(msg.sender == arbitrator);\n        _;\n    }\n\n\n    event Register(address address_Registered);  // list of all the registered users\n\n    /// @notice this function registers a user\n    /// @dev sends 2 DAI to the registering user\n    function register() public {\n        require(registeredUsers[msg.sender] == false);\n\n        registeredUsers[msg.sender] = true;\n\n        emit Register(msg.sender);\n    }\n\n\n    event JobCreated(address manager, uint salary, uint noOfTotalPayments, uint JobID, string description);\n\n    /// @notice this function creates a job\n    /// @dev Uses transferFrom on the DAI token contract\n    /// @param _salary is the amount of salary deposited by the manager\n    /// @param _noOfTotalPayments is the number of total payments iterations set by the manager\n    function createJob(string _description, uint _salary, uint _noOfTotalPayments) public onlyRegisteredUser {\n        require(_salary > 0);\n        require(_noOfTotalPayments > 0);\n\n        address[] memory empty;\n        uint finalSalary = _salary.sub(_salary.mul(1).div(50));\n\n        Job memory newJob = Job(_description, msg.sender, finalSalary, 0x0, JobStatus.Open, _noOfTotalPayments, 0, 0, 0, 0x0, false, 0, empty, 0);\n        Jobs.push(newJob);\n        JobsByManager[msg.sender].push(jobCount);\n\n        require(DAI.allowance(msg.sender, address(this)) >= _salary);\n\n        emit JobCreated(msg.sender, finalSalary, _noOfTotalPayments, jobCount, _description);\n        jobCount++;\n\n        DAI.transferFrom(msg.sender, address(this), _salary);\n\n    }\n\n\n    event JobClaimed(address worker, uint JobID);\n\n    /// @notice this function lets the worker claim the job\n    /// @dev Uses transferFrom on the DAI token contract\n    /// @param _JobID is the ID of the job to be claimed by the worker\n    function claimJob(uint _JobID) public onlyRegisteredUser {\n        require(_JobID >= 0);\n\n        Job storage job = Jobs[_JobID];\n\n        require(msg.sender != job.manager);\n        require(msg.sender != job.evaluator);\n\n        require(job.status == JobStatus.Open);\n\n        job.worker = msg.sender;\n        job.status = JobStatus.inProgress;\n\n        JobsByWorker[msg.sender].push(_JobID);\n        emit JobClaimed(msg.sender, _JobID);\n\n\n    }\n\n\n    event EvaluatorSet(uint JobID, address evaluator);\n\n    /// @notice this function lets a registered address become an evaluator for a job\n    /// @param _JobID is the ID of the job for which the sender wants to become an evaluator\n    function setEvaluator(uint _JobID) public onlyRegisteredUser{\n        require(_JobID >= 0);\n\n        Job storage job = Jobs[_JobID];\n\n        require(msg.sender != job.manager);\n        require(msg.sender != job.worker);\n\n        job.evaluator = msg.sender;\n        emit EvaluatorSet(_JobID, msg.sender);\n\n    }\n\n\n    event JobCancelled(uint JobID);\n\n    /// @notice this function lets the manager or arbitrator cancel the job\n    /// @dev Uses transfer on the DAI token contract to return DAI from escrow to manager\n    /// @param _JobID is the ID of the job to be cancelled\n    function cancelJob(uint _JobID) public onlyRegisteredUser {\n        require(_JobID >= 0);\n\n        Job storage job = Jobs[_JobID];\n\n        if(msg.sender != arbitrator){\n            require(job.manager == msg.sender);\n            require(job.worker == 0x0);\n            require(job.status == JobStatus.Open);\n        }\n\n        job.status = JobStatus.Cancelled;\n        uint returnAmount = job.salaryDeposited;\n\n        emit JobCancelled(_JobID);\n        DAI.transfer(job.manager, returnAmount);\n    }\n\n\n    event PaymentClaimed(address worker, uint amount, uint JobID);\n\n    /// @notice this function lets the worker claim the approved payment\n    /// @dev Uses transfer on the DAI token contract to send DAI from escrow to worker\n    /// @param _JobID is the ID of the job from which the worker intends to claim the DAI tokens\n    function claimPayment(uint _JobID) public onlyRegisteredUser {\n        require(_JobID >= 0);\n\n        Job storage job = Jobs[_JobID];\n\n        require(job.worker == msg.sender);\n\n        uint payment = job.paymentAvailableForWorker;\n        require(payment > 0);\n\n        job.paymentAvailableForWorker = 0;\n\n        emit PaymentClaimed(msg.sender, payment, _JobID);\n        DAI.transfer(msg.sender, payment);\n\n    }\n\n\n    event PaymentApproved(address manager, uint JobID, uint amount);\n\n    /// @notice this function lets the manager to approve payment\n    /// @param _JobID is the ID of the job for which the payment is approved\n    function approvePayment(uint _JobID) public onlyRegisteredUser {\n        require(_JobID >= 0);\n\n        Job storage job = Jobs[_JobID];\n\n        if(msg.sender != arbitrator){\n            require(job.manager == msg.sender);\n            require(job.proofOfLastWorkVerified == true);\n        }\n        require(job.noOfTotalPayments > job.noOfPaymentsMade);\n\n        uint currentPayment = job.salaryDeposited.div(job.noOfTotalPayments);\n\n        job.paymentAvailableForWorker = job.paymentAvailableForWorker + currentPayment;\n        job.totalPaidToWorker = job.totalPaidToWorker + currentPayment;\n        job.noOfPaymentsMade++;\n\n        if(job.noOfTotalPayments == job.noOfPaymentsMade){\n            job.status = JobStatus.Completed;\n        }\n\n        emit PaymentApproved(msg.sender, _JobID, currentPayment);\n\n    }\n\n\n    event EvaluatorPaid(address manager, address evaluator, uint JobID, uint payment);\n\n    /// @notice this function lets the manager pay DAI to arbitrator\n    /// @dev Uses transferFrom on the DAI token contract to send DAI from manager to evaluator\n    /// @param _JobID is the ID of the job for which the evaluator is to be paid\n    /// @param _payment is the amount of DAI tokens to be paid to evaluator\n    function payToEvaluator(uint _JobID, uint _payment) public onlyRegisteredUser {\n        require(_JobID >= 0);\n        require(_payment > 0);\n\n        Job storage job = Jobs[_JobID];\n        require(msg.sender == job.manager);\n\n        address evaluator = job.evaluator;\n\n        require(DAI.allowance(job.manager, address(this)) >= _payment);\n\n        emit EvaluatorPaid(msg.sender, evaluator, _JobID, _payment);\n        DAI.transferFrom(job.manager, evaluator, _payment);\n\n\n    }\n\n\n    event ProofOfWorkConfirmed(uint JobID, address evaluator, bool proofVerified);\n\n    /// @notice this function lets the evaluator confirm the proof of work provided by worker\n    /// @param _JobID is the ID of the job for which the evaluator confirms proof of work\n    function confirmProofOfWork(uint _JobID) public onlyRegisteredUser {\n        require(_JobID >= 0);\n\n        Job storage job = Jobs[_JobID];\n        require(msg.sender == job.evaluator);\n\n        job.proofOfLastWorkVerified = true;\n\n        emit ProofOfWorkConfirmed(_JobID, job.evaluator, true);\n\n    }\n\n    event ProofOfWorkProvided(uint JobID, address worker, bool proofProvided);\n\n    /// @notice this function lets the worker provide proof of work\n    /// @param _JobID is the ID of the job for which worker provides proof\n    function provideProofOfWork(uint _JobID) public onlyRegisteredUser {\n        require(_JobID >= 0);\n\n        Job storage job = Jobs[_JobID];\n        require(msg.sender == job.worker);\n\n        job.proofOfLastWorkVerified = false;\n        emit ProofOfWorkProvided(_JobID, msg.sender, true);\n\n    }\n\n\n    event TipMade(address from, address to, uint amount);\n\n    /// @notice this function lets any registered address send DAI tokens to any other address\n    /// @dev Uses transferFrom on the DAI token contract to send DAI from sender's address to receiver's address\n    /// @param _to is the address of the receiver receiving the DAI tokens\n    /// @param _amount is the amount of DAI tokens to be paid to receiving address\n    function tip(address _to, uint _amount) public onlyRegisteredUser {\n        require(_to != 0x0);\n        require(_amount > 0);\n        require(DAI.allowance(msg.sender, address(this)) >= _amount);\n\n        emit TipMade(msg.sender, _to, _amount);\n        DAI.transferFrom(msg.sender, _to, _amount);\n    }\n\n\n    event DAISponsored(uint JobID, uint amount, address sponsor);\n\n    /// @notice this function lets any registered address send DAI tokens to any Job as sponsored tokens\n    /// @dev Uses transferFrom on the DAI token contract to send DAI from sender's address to Escrow\n    /// @param _JobID is the ID of the job for which the sponsor contributes DAI\n    /// @param _amount is the amount of DAI tokens to be sponsored to the Job\n    function sponsorDAI(uint _JobID, uint _amount) public onlyRegisteredUser {\n        require(_JobID >= 0);\n        require(_amount > 0);\n\n        Job storage job = Jobs[_JobID];\n\n        if(job.sponsors[msg.sender] == 0){\n            job.sponsorList.push(msg.sender);\n        }\n\n        job.sponsors[msg.sender] = job.sponsors[msg.sender] + _amount;\n        job.sponsoredTokens = job.sponsoredTokens + _amount;\n\n        emit DAISponsored(_JobID, _amount, msg.sender);\n\n        require(DAI.allowance(msg.sender, address(this)) >= _amount);\n        DAI.transferFrom(msg.sender, address(this), _amount);\n    }\n\n\n    event DAIWithdrawn(address receiver, uint amount);\n\n    /// @notice this function lets arbitrator withdraw DAI to the provided address\n    /// @dev Uses transfer on the DAI token contract to send DAI from Escrow to the provided address\n    /// @param _receiver is the receiving the withdrawn DAI tokens\n    /// @param _amount is the amount of DAI tokens to be withdrawn\n    function withdrawDAI(address _receiver, uint _amount) public onlyArbitrator {\n        require(_receiver != 0x0);\n        require(_amount > 0);\n\n        require(DAI.balanceOf(address(this)) >= _amount);\n\n        DAI.transfer(_receiver, _amount);\n        emit DAIWithdrawn(_receiver, _amount);\n    }\n\n\n    /// @notice this function lets get an amount of sponsored DAI by an address in a given job\n    /// @param _JobID is the Job for the job\n    /// @param _sponsor is the address of sponsor for which we are retreiving the sponsored tokens amount\n    function get_Sponsored_Amount_in_Job_By_Address(uint _JobID, address _sponsor) public view returns (uint) {\n        require(_JobID >= 0);\n        require(_sponsor != 0x0);\n\n        Job storage job = Jobs[_JobID];\n\n        return job.sponsors[_sponsor];\n    }\n\n\n    /// @notice this function lets retreive the list of all sponsors in a given job\n    /// @param _JobID is the Job for the job for which we are retrieving the list of sponsors\n    function get_Sponsors_list_by_Job(uint _JobID) public view returns (address[] list) {\n        require(_JobID >= 0);\n\n        Job storage job = Jobs[_JobID];\n\n        list = new address[](job.sponsorsCount);\n\n        list = job.sponsorList;\n    }\n\n\n    function getJob(uint _JobID) public view returns ( string _description, address _manager, uint _salaryDeposited, address _worker, uint _status, uint _noOfTotalPayments, uint _noOfPaymentsMade, uint _paymentAvailableForWorker, uint _totalPaidToWorker, address _evaluator, bool _proofOfLastWorkVerified, uint _sponsoredTokens, uint _sponsorsCount) {\n        require(_JobID >= 0);\n\n        Job storage job = Jobs[_JobID];\n        _description = job.description;\n        _manager = job.manager;\n        _salaryDeposited = job.salaryDeposited;\n        _worker = job.worker;\n        _status = uint(job.status);\n        _noOfTotalPayments = job.noOfTotalPayments;\n        _noOfPaymentsMade = job.noOfPaymentsMade;\n        _paymentAvailableForWorker = job.paymentAvailableForWorker;\n        _totalPaidToWorker = job.totalPaidToWorker;\n        _evaluator = job.evaluator;\n        _proofOfLastWorkVerified = job.proofOfLastWorkVerified;\n        _sponsoredTokens = job.sponsoredTokens;\n        _sponsorsCount = job.sponsorsCount;\n    }\n\n}\n",
  "sourcePath": "/Users/Farah/Desktop/travay/contracts/contracts/Escrow.sol",
  "compiler": {
    "name": "solc",
    "version": "0.4.24+commit.e67f0147.Emscripten.clang"
  },
  "schemaVersion": "2.0.1",
  "updatedAt": "2018-09-06T14:16:42.044Z"
}